:100000000C94CA010C9411020C9411020C9411026C
:100010000C9411020C9411020C9411020C94110214
:100020000C9411020C9411020C94E41C0C94B61D57
:100030000C944C170C9411020C9411020C941102A4
:100040000C9411020C9411020C9411020C941102E4
:100050000C9411020C94A5170C9411020C9411022B
:100060000C9411020C9411020C9411020C941102C4
:100070000C9411020C9411020C9411020C941102B4
:100080000C9411020C9411020C9411020C941102A4
:100090000C9411020C9411020C9411020C94110294
:1000A0000C9411020C9411020C941102A30DA30DD7
:1000B000D50DD50D220E490F490F490F400ED90E0F
:1000C000EA0EEA0EE50FE50FF70FF70FEE0FF70F49
:1000D000F70FF70FE50FE50FF30FF70FF70FF30F1C
:1000E000231E4A1E421F4A1E421F961EB91E421F51
:1000F000101F1F1F4B4C3A206B633A2025752C2094
:10010000636F6C3A2025752C20726F773A20257525
:100110002C20707265737365643A2025750A00524D
:100120006177205D20583A2025642C20593A2025FB
:10013000640A0044454255473A2064697361626C21
:1001400065642E0A0044454255473A20656E616257
:100150006C65642E0A000A0025303862003A2000DF
:1001600025303258000A722F632030313233343553
:1001700036370A000A002530325820006B65796254
:100180006F6172645F7265706F72743A20000A006A
:1001900025303258006B6579626F6172645F7365F8
:1001A000745F6C65643A20004F6E6573686F743AD3
:1001B000206163746976653A2025640A005B735D8B
:1001C000004B6579626F6172642073746172742E82
:1001D0000A005B575D005B535D005B525D005B4452
:1001E0005D005B435D001E0354007200610063000C
:1001F0006B00620061006C006C0020004E0061002A
:100200006E006F000000260350006C006F006F004E
:1002100070007900200043006F00720070006F00D2
:1002200072006100740069006F006E00000004033A
:10023000090409027400040100A03209040000014D
:10024000030101000921110100012240000705817D
:100250000308000109040100010301020009211142
:10026000010001224700070582030800010904027A
:1002700000010300000009211101000122320007E2
:1002800005830320000109040300020300000009A4
:10029000211101000122220007058403200001072B
:1002A0000504032000011201100100000008435062
:1002B000AB1E0100010200010631FF0974A1010912
:1002C00075150026FF009520750881020976150036
:1002D00026FF00952075089102C005010980A10143
:1002E000850319012AB700150126B700950175107D
:1002F0008100C0050C0901A101850419012AA00291
:10030000150126A002950175108100C005010902A2
:10031000A1010901A10005091901290815002501FC
:100320009508750181020501093009311581257F84
:1003300095027508810609381581257F9501750894
:100340008106050C0A38021581257F950175088103
:1003500006C0C005010906A101050719E029E71536
:100360000025019508750181029501750881010537
:1003700007190029FF150026FF0095067508810062
:100380000508190129059505750191029501750367
:100390009101C00011241FBECFEFDAE0DEBFCDBF58
:1003A00004B603FE27C080914F0390915003A091A3
:1003B0005103B09152038730904BA740B04BD1F41A
:1003C00010924F0310925003109251031092520357
:1003D00014BE84B7877F84BF0FB6F894A895809128
:1003E0006000886180936000109260000FBEE0E0C2
:1003F000F8E3099511E0A0E0B1E0E2E0F1E402C029
:1004000005900D92AA39B107D9F723E0AAE9B1E026
:1004100001C01D92AF34B207E1F70E94191A0C9483
:100420007F200C940000FF93EF93E0919A01F091EC
:100430009B01309709F00995EF91FF910895FC0118
:100440008591803011F0EFDFFBCF0895FF27E0E2C8
:1004500030E247FF0CC0419597FF09C0EDE260957F
:10046000709580959095611D711D811D911D27FFCF
:1004700002C0219530E350E2AA27660F771F881F3C
:10048000991FAA1FA41710F0A41B63955A95A9F7EA
:10049000AA3008F0A95FA05DAF93F39561157105CF
:1004A0008105910541F7ED3211F4EF93F395F217C1
:1004B00018F43F93F395FBCF8F91B5DFFA95E1F7F1
:1004C0000895E991F9918591803021F0853219F0F4
:1004D000AADFF9CF089520E0E89455915532C1F391
:1004E000503311F4689455915A3348F4505390F3B3
:1004F000220F022E220F220F200D250FF4CF0EF413
:10050000219589919991533619F3533729F1533530
:1005100059F1BC0188279927E8945C3621F4899128
:10052000999168945591543639F446EF7EF077FFEF
:100530000DC08FEF9FEF0AC055374AE039F05835AC
:1005400040E121F0523642E009F00895FF93EF9325
:100550007DDFEF91FF91B7CFFF93EF93FC01819186
:100560008030B9F360DFFBCFFF93EF9368DFF1CF0B
:10057000DF93CF93CDB7DEB72596A3DFCF91DF9181
:100580000895279A3E9A249A08952C9808952C9AB3
:1005900008953E98469898E080E02F9825E02A95A7
:1005A000F1F7000026B126FB222720F9880F822BC5
:1005B0002F9A25E02A95F1F70000915071F70895E0
:1005C0003E9A27E030E090E02F98AC01022E02C066
:1005D000559547950A94E2F740FF02C0469A01C03C
:1005E00046984AE04A95F1F700C02F9A2150310908
:1005F00058F785E18A95F1F700000895CF93DF93CE
:10060000D82FC62F0E94C5028D2F80680E94E0025D
:100610008C2F0E94E002DF91CF910C94C70287FDDE
:1006200080680895CF93DF930E94C50283E60E94FD
:10063000E0020E94C902C82F0E94C902D82F0E945E
:10064000C7028C2F0E940F03C82F8D2F0E940F030B
:10065000982F8C2FDF91CF910895682F89E10C940A
:10066000FE021092E70210925F021092A3028FEF37
:1006700093E09093A5028093A4021092EA02109254
:10068000E9021092A60210922E03109235031092E6
:1006900034031092320310923103109260021092D0
:1006A000A2029093300380932F03109220021092A5
:1006B0001F021092EB02109261021092EF02109250
:1006C000EE021092A8021092A7021092E802109275
:1006D00033031092ED021092EC021092630210921A
:1006E00062020895FC01618342830895EF92FF92B4
:1006F0000F931F93CF937C010E941203C92F811186
:1007000002C0992389F190911002082F082E000C45
:10071000110B93FF16C090FF14C02C2F0C2E000C51
:10072000330B3F93CF931F938F938FE191E09F9370
:100730008F930E94B8020F900F900F900F900F9020
:100740000F906C2FCC0F770B880B990B0E94AD1F6D
:1007500090580E94751FA801C701CF911F910F915A
:10076000FF90EF900C947203CF911F910F91FF9027
:10077000EF900895DF92EF92FF920F931F93CF9324
:10078000DF9300D000D01F92CDB7DEB78C017B0184
:10079000FB0182811F928F9381811F928F938081B1
:1007A0001F928F931F930F9384EF90E09F938F93EB
:1007B0000E94B8020FB6F894DEBF0FBECDBFF7019E
:1007C0008081813069F4818181110AC00E947E1785
:1007D00090939D0180939C01F701828180939E01FB
:1007E000B701C8010E94F904D82E882309F447C034
:1007F0000F35FDE51F0711F5F70182818823F1F020
:100800008091360390E0019663E070E00E941D2025
:1008100080933603609136037091370380913803DB
:10082000909139030E943816E0913603F0E0EE0F04
:10083000FF1FE050FF4F80810E942D03015F1109CF
:1008400008301105E0F40E94C6083A834B835C83AC
:100850006D83F701828141E050E001C0440F0A95A9
:10086000EAF7882311F0422B02C0409542235A81B7
:100870006B817C818D810E94E6080E9490088D2DFD
:100880000F900F900F900F900F90DF91CF911F91CD
:100890000F91FF90EF90DF9008950F931F93CF93E8
:1008A000DF93CDB7DEB761970FB6F894DEBF0FBE0A
:1008B000CDBF8098889884988C9881E1E3E1F1E03D
:1008C000DE01119601900D928A95E1F7FE013196B5
:1008D0009E012E5E3F4F41E050E08191A82FA295EE
:1008E000AF70B0E091966C9191978F708A0102C0C1
:1008F000000F111F8A95E2F7C801962F982B919649
:100900009C93919792969C91929780958923929629
:100910008C932E173F0709F761960FB6F894DEBF48
:100920000FBECDBFDF91CF911F910F910C94DA0BC9
:100930000E94C1020E9431036AE58AE30E94FE021E
:100940002FE78FEA92E0215080409040E1F700C00D
:1009500000000E941203E0913603F0E0EE0FFF1F4B
:10096000E050FF4F80810C942D03CF93DF9300D094
:1009700000D01F92CDB7DEB70E94C60829833A8304
:100980004B835C836D83CE0101960E94760349817F
:100990005A816B817C818D810E94E6080E949008BB
:1009A0000F900F900F900F900F90DF91CF910895BF
:1009B00082E0809336036091360370913703809113
:1009C0003803909139030E9438160C9444160E9403
:1009D00034166093360370933703809338039093F3
:1009E0003903643010F00E94D8040C941C0881E094
:1009F000089581E0089508950C94FB041F93CF930C
:100A0000DF9300D000D01F92CDB7DEB749835A8361
:100A10006B833091BD0189819A81311114C06623A5
:100A200059F0222349F00E949B14182F682F8981C6
:100A30009A810E944A1403C00E947214182F69817F
:100A40007A81812F04C00E949B1469817A810F9062
:100A50000F900F900F900F90DF91CF911F910C94FA
:100A6000EE05FC01262F40815181628173818481D2
:100A70000C94FE04CF93DF93EC0160E00E943105FB
:100A8000BE01DF91CF910C94FC040E94C5070C9429
:100A9000E7040C941A0808950E94D30F0E944B0596
:100AA0002FEF84E39CE0215080409040E1F700C0AC
:100AB00000000C94CB170F931F93CF93DF938C01FF
:100AC00061E00E943105EC01B8010E94BA0388235D
:100AD00009F45BC0B801CE010E947609882309F4AD
:100AE00054C0B801CE010E94C809882309F44DC042
:100AF000B801CE010E94F30A882309F446C0F80128
:100B000082818823D9F1CF3D8CE5D80779F140F473
:100B1000C115FCE5DF0791F0C130DC4591F02EC036
:100B2000CC35EDE5DE0741F1CD35FDE5DF0709F117
:100B3000CB35DD4519F50E944B1520C00E944C05B0
:100B400024C080911002C82FC095C170C0FB80F9ED
:100B500080931002CC2329F085E491E00E941F02CB
:100B600014C083E391E00E941F0210C00E94A816E7
:100B70000CC00E94421502C00E944E15C801DF91B0
:100B8000CF911F910F910C94F704C0E08C2FDF914F
:100B9000CF911F910F9108958295982F937344E000
:100BA000949F900111248C7C86958695282B822F0A
:100BB0008575880F2A7A2695822B089508950C94BE
:100BC000DE0581E008950C94E105CF93C82F0E94C3
:100BD000DF058C2F0E94E305CF910895972F70E0D9
:100BE000690F711DFB01E80FF11DEE0FFF1FED5C9A
:100BF000FE4F859194910895CF93DF930E94EE0567
:100C00000E94ED06EC0181159245F0F5C11581E5D4
:100C1000D80708F0A9C0C83ED10528F5C03ED105C7
:100C200008F0D7C0C83AD10578F4C53AD10508F024
:100C300074C0C130D10509F4CCC008F4C8C0C430B8
:100C4000D10508F0C6C0C3C0CF3BD10508F0BFC076
:100C5000C85AD0E0CC0FDD1FCC5DDE4F0990D881A3
:100C6000C02DD464B6C0C11590E5D90708F060C0A6
:100C7000C11520E4D20708F058C0CE019A9581151D
:100C80009F4108F4A6C0A3C0C11586E5D80718F592
:100C9000C11595E5D90708F080C0C11524E5D20734
:100CA00008F076C09E01237033278C2F8695869599
:100CB000C115D34508F05DC0C1E0D0E002C0CC0F43
:100CC000DD1F2A95E2F720E2829FC0011124C82B84
:100CD000D92BDC687EC0C1152AE5D20778F4C1158E
:100CE00089E5D80708F063C0C11598E5D90708F46D
:100CF0006EC0DC2FCC27C06FD06A6BC0CE0190567F
:100D00008115904208F063C08D2F8F710E9481077A
:100D1000DD27D0628F71D82B5CC0C55AD0E0CE5A87
:100D2000DE4FC881D0E0D06454C0DF70D06A51C0BB
:100D3000CE0174E0969587957A95E1F783709C2FA4
:100D4000937021E030E002C0220F331F9A95E2F742
:100D50003C68382BCF70C695C69580E2C89FE001ED
:100D60001124C22BD32B35C0DC2FCC27C16FD06A06
:100D700030C0C1E0D0E002C0CC0FDD1F2A95E2F701
:100D800020E2829FC0011124C82BD92BDA6821C030
:100D9000DC2FCC27C46FD06A1CC08C2F0E94810727
:100DA0008F71C82FD0E0DC2FCC27D06212C08C2FDF
:100DB0008F700E94810794E0D695C7959A95E1F7C8
:100DC000CF70D0E0DC2FCC27D069C82B02C0C0E0A8
:100DD000D0E0CE01DF91CF9108958238910569F17D
:100DE000B0F48133910509F46DC048F4893291055E
:100DF00009F463C08A32910509F469C00895853306
:100E0000910509F455C089339105B9F00895833EE1
:100E1000910569F138F4803E9105B1F0823E91056B
:100E200009F10895863E9105A9F1873E9105B9F132
:100E3000843E910509F064C023C020913A0320FD4F
:100E40004FC021FD4DC0089580913A0380FD44C0FC
:100E500080913B0380FF44C080913A0384FD42C0EF
:100E600083EE4DC080913A0382FF38C0F5CF809168
:100E70003A0382FD33C080913B0380FD31C0ECCF4B
:100E800080913B0381FF32C080913A0384FD2AC0E8
:100E900087EE35C080913A0383FF26C0F5CF80915D
:100EA0003A0383FD21C080913B0381FD1FC0ECCF3D
:100EB00080913A0385FD1CC01DC080913A0385FDD9
:100EC00019C016C080913A0386FD16C017C08091E4
:100ED0003A0386FD13C010C089E311C082EE0FC033
:100EE00080EE0DC080E00BC086EE09C084EE07C026
:100EF00089E205C085E303C08AE201C081E390E096
:100F0000089590913A0392FF0DC0282F2871283040
:100F100019F4877F846006C0282F2471243011F4CF
:100F20008B7F886093FF0DC0282F2871283119F41A
:100F3000877E846106C0282F2471243111F48B7EB2
:100F4000886120913B0320FF0DC0382F3871383065
:100F500019F4877F816006C0382F3171313011F468
:100F60008E7F886021FF0DC0282F2871283119F449
:100F7000877E816106C0282F2171213111F48E7E78
:100F8000886194FD877E089508950E94031681115B
:100F900002C00E94A8160E940E16809310020E94A2
:100FA000161690933B0380933A030E94C4070E9455
:100FB0001216682F70E080E090E00E944C13609160
:100FC000FB017091FC018091FD019091FE010C9458
:100FD0008413E82FF0E0E35CFC4F8081089585E600
:100FE00091E00E941F021F921F9280E691E09F9362
:100FF0008F930E94B8028DE591E00E941F028091BC
:101000003D030E94CC051F928F9388E591E09F934A
:101010008F930E94B8028DB79EB708960FB6F894CA
:101020009EBF0FBE8DBF86E591E00C941F02089510
:101030000C9417080C9418080C9417080898109A28
:1010400010923C0310923D0381E00E9443080C94EF
:101050004505CF9380B18095817090913C0398179E
:1010600021F080933C03C1E001C0C0E02C2F41E09F
:101070006DE373E08CE393E00E9444080E9449050D
:101080008C2FCF9108950895FB01DC0150E09D0164
:10109000281B390B241735071CF42D912193F7CF0A
:1010A0000895EF92FF920F931F93CF93DF93CDB7E5
:1010B000DEB72A970FB6F894DEBF0FBECDBF6B83A5
:1010C0007C838D83088719872A874E1118C0552382
:1010D00011F0F51214C08B81882319F098859813AC
:1010E0000EC08D81882319F09A85981308C09C81C1
:1010F000992339F081E02985291304C002C081E0D9
:1011000001C080E081702A960FB6F894DEBF0FBE52
:10111000CDBFDF91CF911F910F91FF90EF90089578
:10112000EF92FF920F931F93E0909F01F090A00128
:101130000091A1011091A2012091A3014091A4016D
:101140005091A5016091A6017091A7018091A8011D
:101150000E945108882321F084EA91E00E947E0BCE
:101160001092A5011092A6011092A7011092A80159
:1011700085E0E4EAF1E0AFE9B1E001900D928A95F3
:10118000E1F71F910F91FF90EF900895CF93DF93B8
:1011900000D000D01F92CDB7DEB785E0E4EAF1E0E1
:1011A000DE01119601900D928A95E1F729813A812D
:1011B0004B815C816D8170E080E090E00F900F903A
:1011C0000F900F900F90DF91CF910895CF93DF9301
:1011D00000D000D01F92CDB7DEB749835A836B830E
:1011E0007C838D8385E0FE013196A4EAB1E0019015
:1011F0000D928A95E1F70F900F900F900F900F903E
:10120000DF91CF9108950F931F93CF93DF93C42F56
:10121000D22FFC0182818823C9F04093AB010E9448
:101220007E179093AA018093A90180E28C0F8830E9
:1012300008F057C0C77081E001C0880FCA95EAF76F
:10124000DF91CF911F910F910C945E0D8091AB01B6
:10125000481330C08091A9019091AA010E9496176D
:10126000883C910538F510E21D0FCD17B9F080E2EA
:101270008C0F883040F4C77081E001C0880FCA9598
:10128000EAF70E94650D183028F581E09D2F9770D0
:1012900001C0880F9A95EAF70E945E0D802F0E9488
:1012A000550D1830F0F4D77081E001C0880FDA9541
:1012B000EAF70AC080E28C0F883098F4C77081E0AA
:1012C00001C0880FCA95EAF7DF91CF911F910F9166
:1012D0000C94650D802FDF91CF911F910F910C948D
:1012E000550DDF91CF911F910F9108950F939C01A0
:1012F000CB01243F4CE5340731F188F4293DFCE56E
:101300003F07D9F02A3D4CE5340779F1283D3C45AB
:10131000A9F506E221EE41EE68ED7CE52BC0263F03
:10132000FCE53F07E1F0A8F0273F3C4539F507E22F
:1013300025EE46EE67EF7CE51DC007E225EE45EEA3
:1013400069ED7CE517C006E221EE40EE64EF7CE536
:1013500011C007E225EE44EE65EF7CE50BC006E226
:1013600021EE42EE66EF7CE505C008E221E045EEA5
:101370006AED7CE50E94030980E008C0FC018281DF
:10138000882319F01092AB0101C081E00F910895FC
:10139000CF93DF93EC01FB018281882309F41FC105
:1013A000C230FCE5DF0708F41BC1C6319CE5D90754
:1013B00038F09E012B5F3C452930310508F010C103
:1013C0000E94161690933B0380933A03C031ECE5DC
:1013D000DE0709F4C3C008F041C0C8308CE5D80767
:1013E00009F49AC0F0F4C430ECE5DE0709F487C0D4
:1013F00068F4C2308CE5D80709F477C0C330DC4507
:1014000009F0E3C080913A03826076C0C630ECE513
:10141000DE0709F46EC008F07BC080913A03886053
:101420006BC0CC308CE5D80709F485C068F4CA30AD
:10143000ECE5DE0709F474C008F079C00E94D30F10
:1014400080913A03806858C0CE308CE5D80709F403
:1014500076C008F07FC080913A038BC0CC3FECE5AA
:10146000DE0709F44FC018F5C3318CE5D80709F43D
:101470007DC078F4C131ECE5DE0709F473C0C231F8
:10148000DC4509F0A2C00E94D30F80913A038F7708
:1014900033C0C5318CE5D80709F472C008F486C0A2
:1014A000CB3FDC4509F091C080913B033EC0C115A4
:1014B000FDE5DF0709F45FC058F4CE3F9CE5D9078E
:1014C00009F444C008F43FC080913B0382602DC002
:1014D000C230FDE5DF0709F475C008F45DC0C33014
:1014E000DD4509F072C080E06EC080913A038160F2
:1014F00003C080913A03806180933A0366C0809173
:101500003A0311C080913B03826080933B035DC02E
:1015100080913A038062F0CF80913A038064ECCFEF
:1015200080913A0388608460E7CF8160EECF80913C
:101530003A038E7FE1CF80913A038D7FDDCF80919A
:101540003A03877FD9CF80913B0318C080913B033A
:101550008D7FDBCF80913A038F7ECECF80913A038F
:101560008F7DCACF80913A038F7BC6CF80913A039B
:10157000877F8B7FC1CF80913B038D7F8E7FC5CFCF
:1015800080913A0382FB222720F991E0922790FB79
:1015900082F990FB83F9B0CF80913B03982F90950F
:1015A00091708E7F892B90FB81F9AFCF0E94D30F72
:1015B00080913A0387FB222720F991E0922790FB44
:1015C00087F99ACF81E00E94AA1680913A03909100
:1015D0003B030E9427160E94D30F80E001C081E0E8
:1015E000DF91CF910895CF93DF9386319C4541F5EC
:1015F000EB010E945115982F8A81209106013091AC
:101600000701882379F09A7A81E009F480E08093D9
:10161000AC01911102C069E201C065E3C9010E94F9
:10162000F1160AC08091AC01811102C069E201C0CB
:1016300065E3C9010E94F3160E94961580E001C07F
:1016400081E0DF91CF9108959093B2018093B10131
:101650000895E091B101F091B201309721F001902D
:10166000F081E02D099480E00895EF92FF920F93AE
:101670001F93CF93DF93E091B101F091B2013097C6
:10168000B1F18C010280F381E02D09958091100267
:1016900082FF2DC080FF04C08CE791E00E941F02F2
:1016A000E80118E086E7E82E81E0F82E809110022C
:1016B00080FF0BC088811F928F93FF92EF920E9450
:1016C000B8020F900F900F900F90115021961111AA
:1016D000EDCF8091100280FF0AC084E791E0DF9196
:1016E000CF911F910F91FF90EF900C941F02DF910B
:1016F000CF911F910F91FF90EF900895E091B1016C
:10170000F091B201309721F00480F581E02D099429
:1017100008952091AF013091B0012817390771F079
:101720009093B0018093AF01E091B101F091B201CB
:10173000309721F00680F781E02D099408952091DB
:10174000AD013091AE012817390771F09093AE01C9
:101750008093AD01E091B101F091B201309721F099
:101760000084F185E02D099408950E948A17609302
:10177000B9017093BA018093BB019093BC0160934F
:10178000B5017093B6018093B7019093B8010895A5
:1017900085B7806885BF85B7806885BF089581E07B
:1017A00008950C94CF0B08950C94D30B0C94D30B89
:1017B0000C94D60B0C94D30B0C94D30B0E94C80B37
:1017C00086EB99E10E94EF170E94DC0B0C944D040C
:1017D0000E94D40B0C94D30B0E9475170E941E0814
:1017E0000E9498040C94D80BCF93C82F80911002BC
:1017F00082FF1EC080FF04C085E991E00E941F02A5
:101800008091100280FF0CC01F92CF9380E991E07D
:101810009F938F930E94B8020F900F900F900F909C
:101820008091100280FF04C08EE891E00E941F02A8
:101830008C2FCF910C94E5050F931F93CF93DF93DB
:10184000CDB7DEB72A970FB6F894DEBF0FBECDBF77
:101850000E94290881110E94B50B80E00E94E907CF
:10186000182F0091B401082711F18091100281FD19
:101870000E94EF0700FF1BC00E94D10B882381F05C
:101880001E821F82117018870E947E178160782F38
:101890009A8789874E815F8168858A850E948A0C34
:1018A0009091B40181E089278093B40110C08FEF3B
:1018B00089838A831B820E947E178160782F9D8393
:1018C0008C8349815A816B818D810E948A0C0E9490
:1018D000B5040E94290B9091B301891781F00E94F1
:1018E000290B8093B3012A960FB6F894DEBF0FBE82
:1018F000CDBFDF91CF911F910F910C94F40B2A96DD
:101900000FB6F894DEBF0FBECDBFDF91CF911F9110
:101910000F910895DF92EF92FF920F931F93CF9351
:10192000DF93CDB7DEB72B970FB6F894DEBF0FBEAF
:10193000CDBFF42E052F162FE72ED82E61110E9451
:101940007115FE01319686E0DF011D928A95E9F757
:101950007E2D4F2D502F612F8D2D9E810E948C1238
:101960002B960FB6F894DEBF0FBECDBFDF91CF919F
:101970001F910F91FF90EF90DF900895FC018081FF
:1019800091810E94DD140895CF93882309F448C003
:10199000C82F8CEF8C0F813AD0F46C2F8091060108
:1019A000909107010E94BB16882349F06C2F80910B
:1019B0000601909107010E94F3160E9496156C2F64
:1019C00080910601909107010E94F1160CC080E2FF
:1019D0008C0F883058F4C77081E001C0880FCA9519
:1019E000EAF70E945415CF910C949615EBE5EC0F95
:1019F000E33040F4F0E0ED57FE4F808190E0CF916E
:101A00000C94890BC85AC73158F4EC2FF0E0EE0F54
:101A1000FF1FEB5AFE4F80819181CF910C949F0B59
:101A2000CF910895882349F1682F8CEF860F813A72
:101A300038F480910601909107010E94F3160CC0C2
:101A400080E2860F883050F4677081E001C0880F13
:101A50006A95EAF70E945A150C9496158BE5860F45
:101A6000833020F480E090E00C94890B685A673151
:101A700020F480E090E00C949F0B08951F93CF9387
:101A8000DF93182FEB010E94C40C209741F08FE9DF
:101A90009FE00197F1F700C000002197F6CF812F5A
:101AA000DF91CF911F910C94120D893319F060E0F2
:101AB00070E002C060E570E00C943E0D882321F0D8
:101AC0000E9454150C9496150895882321F00E94C5
:101AD0005A150C9496150895CF92DF92EF92FF92CB
:101AE0000F931F93CF93DF937C01D62FC72FFC0159
:101AF0001281058102950F700E941515882399F0B7
:101B0000112389F08C2F807F803421F080E28D0FAB
:101B1000883048F082E00E94E6150E94151591E099
:101B2000D82ED92601C0D12CCC2EC2948FE0C82249
:101B30008C2D90E08C30910508F0ABC1FC01EA5A85
:101B4000FF4F0C9431208C2F807FCF70882311F0B1
:101B5000C295C07F112399F0CC2309F486C180E29D
:101B60008D0F883010F0D11104C08C2F0E945415B5
:101B700003C08C2F0E9464150E94961576C18D2F8C
:101B80000E94120DCC2309F484C180E28D0F8830AD
:101B900010F0D11104C08C2F0E945A1503C08C2F55
:101BA0000E946A150E94961574C18C2F807FCF7099
:101BB000803211F0C295C07FDD2319F0D130C9F019
:101BC00022C0112371F0002341F0013031F40E9452
:101BD00077158C2B0E947F155CC10E9477158C2B8A
:101BE0001DC0002319F0013009F453C10E948C1567
:101BF00025C0112321F0063008F04BC10EC005307E
:101C000008F047C11BC0112361F0002331F0F70138
:101C1000858180FF2AC18F7085838C2F0E945E0D85
:101C200038C1002359F0D93309F030C1FFEF07EE76
:101C300013E0F15000401040E1F726C18C2F0E94C4
:101C4000650D27C18C2F86958695837019F081309C
:101C500061F01FC1112321F08D2F9C2F937002C0C2
:101C600080E090E00E94890B1CC1112321F08D2F90
:101C70009C2F937002C080E090E00E949F0B11C1E6
:101C80008C2F837009F047C0111107C12D2F2295A9
:101C900026952770220F220F6D2F6F70862F90E0F0
:101CA000A0E0B0E0022E04C0880F991FAA1FBB1F3E
:101CB0000A94D2F7D4FF10C04FE050E060E070E02B
:101CC00004C0440F551F661F771F2A95D2F7409511
:101CD00050956095709503C040E050E0BA01C695FC
:101CE000C695C3708A019B01082B192B2A2B3B2B0D
:101CF000C901B801C23049F058F4C13019F00E944E
:101D00006013CBC00E944E13C8C00E947213C5C09E
:101D10000E944C13C2C0112319F08C2F817001C096
:101D20008695882309F4B9C02D2F22952695277012
:101D3000220F220F6D2F6F70862F90E0A0E0B0E091
:101D4000022E04C0880F991FAA1FBB1F0A94D2F746
:101D5000D4FF10C04FE050E060E070E004C0440FDA
:101D6000551F661F771F2A95D2F7409550956095AD
:101D7000709503C040E050E0BA01C695C695C370A7
:101D80008A019B01082B192B2A2B3B2BC901B80177
:101D9000C23049F058F4C13019F00E9425147DC0BA
:101DA0000E9413147AC00E94371477C00E948613D1
:101DB00074C0CF70112339F08C2F0E94AC138D2F7B
:101DC0000E945E0D6AC08D2F0E94650D8C2F0E94AF
:101DD000CD1363C0D23F01F128F4D03F41F0D13F91
:101DE000A1F03FC0D33FF9F0D43F39F13AC01123FD
:101DF00041F0053008F04DC08C2F8F710E94F21316
:101E000048C0063008F045C0F7CF112339F08C2FB9
:101E10008F710E94AC133DC01123C9F38C2F8F71B9
:101E20000E94CD1336C0112329F08C2F8F710E9490
:101E300097132FC00E9492132CC0112349F0CF7129
:101E40008C2F0E94AC1363E08C2F0E94CB1521C015
:101E500081E00E94E6150230E0F082E00E94E61583
:101E600018C0112331F0002391F28D2F0E94C40C71
:101E700010C0002399F2D93349F41FEF27EE33E065
:101E8000115020403040E1F700C000008D2F0E942B
:101E9000120D88EF8C0D843020F40E94290B0E94D3
:101EA000E505DD20C9F00E94111580FD15C0F70180
:101EB00012820E940B150E94AC13C7010E948D0F65
:101EC0000E940B15DF91CF911F910F91FF90EF9022
:101ED000DF90CF900C94CD13DF91CF911F910F9194
:101EE000FF90EF90DF90CF9008950F931F93CF93C3
:101EF000DF93EC01688179818A810E94E8148C016A
:101F00000E9449140E943A13B801CE010E946C0D40
:101F1000DF91CF911F910F910895CF93DF93EC0143
:101F2000988189812B813C81232B31F08F3F31F4C3
:101F300081E09F3F19F403C081E001C080E080FD93
:101F400019C0CE010E945B0581110CC00E941515BD
:101F5000882381F08A81882369F082E0DF91CF9124
:101F60000C94E615CE010E94750FCE01DF91CF9142
:101F70000C943A05DF91CF91089580E090E00E94A3
:101F8000890B80E090E00E949F0B0E9471150E94D7
:101F900074150C94961580910601909107010E948A
:101FA000F5160C94BD0F0E9461150C94CB0FE92F10
:101FB000E295EF704E2F50E0FA013297EE30F105C6
:101FC000B0F4EE59FF4F0C943120803F91F018F49B
:101FD000883E68F40EC0843F51F40BC0883E48F040
:101FE000813F29F406C093FB882780F9089580E09B
:101FF000089581E008950E94DD140E94D70F08958E
:10200000CF93DF9300D000D01F92CDB7DEB70F90F3
:102010000F900F900F900F90DF91CF910895CF9375
:10202000DF9300D000D000D0CDB7DEB726960FB634
:10203000F894DEBF0FBECDBFDF91CF9108951F93FF
:10204000CF93DF93C091BE0116E08091BF01C81706
:1020500099F0D0E01C9FF0011D9FF00D1124E05479
:10206000FE4F4081518162817381848195810E94FC
:102070000F102196C770E9CFDF91CF911F9108957E
:102080004091F0015091F1016091F2017091F301E2
:102090008091F4019091F5010C940F100F931F9310
:1020A000CF93DF938091F50182958F7009F05DC029
:1020B0008091F201882309F458C08091BE011091EB
:1020C000BF016091F0017091F101C091F301D091D5
:1020D000F40191E06F3F09F090E0292F06E08117AD
:1020E00009F443C0209721F07F3F21F030E003C086
:1020F00031E001C0322F90E030FD34C0089FF00184
:10210000099FF00D1124DF01A054BE4F11963C91A0
:102110001197371327C03C91361324C012963C9177
:10212000129731111FC013964D915C9114974C1B5F
:102130005D0B483C5105B0F48091F5018F708061D2
:102140008093F501EB53FE4F80818F708061808317
:1021500080EF91E00E948D0FDF91CF911F910F9141
:102160000C941F1001968770BACFDF91CF911F9109
:102170000F9108959F92AF92BF92CF92DF92EF920C
:10218000FF920F931F93CF93DF93CDB7DEB7619785
:102190000FB6F894DEBF0FBECDBF8C0185E0F8010D
:1021A000DE011D9601900D928A95E1F7F8014081BC
:1021B0005181E2809091F0016091F1012091F30151
:1021C0003091F4012115310531F06F3F31F481E098
:1021D0009F3F19F403C081E001C080E0F82FF17047
:1021E0009F2E80FD46C1F801A380B48080EFC82EE9
:1021F00081E0D82EF090F201F501E21BF30BFF20F5
:1022000009F4DFC08091F501E83CF10508F09BC0BE
:10221000282F207F09F052C0561313C0491311C054
:10222000FE2CE1100EC08F7080618093F5010E943A
:102230004010C6010E948D0F8091F501F801858341
:1022400058C1AB2831F05F3F31F481E04F3F19F4C2
:1022500003C081E001C080E080FD03C081E08E25E5
:1022600002C080E090E0F82FF170FF2E80FF1CC0CC
:102270008091BE012091BF0136E0821709F417C199
:1022800090E0389FF001399FF00D1124E054FE4F8B
:102290006181561306C06081461303C06281E61255
:1022A00003C001968770E9CFFE2CEE2009F421C10E
:1022B0008091F50181608093F5015AC0561306C0E4
:1022C000491304C0E11002C0F8019FC04D875E872A
:1022D0008D859E850E94FB0F882379F1EE2069F1A0
:1022E0002091F501822F82958F7090E0029774F013
:1022F0008091F0019091F10198878F831986BB86B8
:10230000AA862C87CE0107960E948D0F86E0F801E1
:10231000A0EFB1E001900D928A95E1F70E944E1076
:102320000E9440100DC0561729F14D875E878D859C
:102330009E850E94FB0F81112CC0C8010E948D0F49
:10234000FF24F394D6C0282F207F69F77A2DB98A0D
:10235000A88A6E2D89890E94001080EF91E00E946A
:102360008D0F86E0F60111928A95E9F70E944010E0
:10237000F12CBFC04913D9CFE110D7CFF801858325
:10238000C8010E948D0F86E0F60111928A95E9F747
:10239000B0C0EE2091F22091F501822F82958F70CE
:1023A00090E002970CF4B2CF8091F0019091F1018E
:1023B0009A8389831B82BD82AC822E83CE010196D3
:1023C000A3CFE83CF10508F047C0FE2CEE2009F44D
:1023D000B4CF561330C049132EC02091F50120FD13
:1023E00021C0822F82958F70482F50E041155105F2
:1023F000C9F0F80125834F30510541F08F5F982FC8
:102400009295907F822F8F70892B8583C8010E94BF
:102410008D0F86E0F801A0EFB1E001900D928A9552
:10242000E1F742C086E0F801A0EFB1E001900D9223
:102430008A95E1F75EC04D875E878D859E850E94F7
:10244000FB0F811163CF8091F50181608093F501CD
:10245000C8010E948D0F4DC07A2DB98AA88A6E2DB1
:1024600089890E94001086E0F60111928A95E9F7A9
:102470001BC0EE2009F461CF4D875E878D859E8558
:102480000E94FB0FF82E882309F457CF86E0F8014D
:10249000A0EFB1E001900D928A95E1F780EF91E015
:1024A0000E94BE0C0E944E100E94401022C04D8718
:1024B0005E878D859E850E94DD14292F22952F70C1
:1024C000223028F49F7039F0811105C00BC02430F0
:1024D00028F49F7049F4805E883020F0C8010E9483
:1024E0008D0F9F2CF92C05C0F8019581907F99F7ED
:1024F000F9CF8F2D61960FB6F894DEBF0FBECDBF1A
:10250000DF91CF911F910F91FF90EF90DF90CF90CF
:10251000BF90AF909F9008951F93CF93DF93CDB757
:10252000DEB72C970FB6F894DEBF0FBECDBF4F833A
:10253000588769877A878B879C87CE0107960E9488
:10254000BA108823D1F09F8188852A853B85232B6B
:1025500031F08F3F31F481E09F3F19F403C081E0F7
:1025600001C080E080FD47C04F81588569857A852C
:102570008B859C850E940F103EC086E0FE01379639
:10258000DE01119601900D928A95E1F7FF81E885B1
:102590006A857B856115710531F0EF3F31F481E08B
:1025A000FF3F19F403C081E001C080E080FD23C03B
:1025B0002091BF0130E0C9010196877099274091B1
:1025C000BE0150E084179507F1F1F983EA837D831A
:1025D0006C8396E0929FD001939FB00D1124A0547C
:1025E000BE4FFE01319601900D929A95E1F78093CE
:1025F000BF010E941F1016E08091BE019091BF01A3
:10260000891771F1189FC001112480549E4F0E94B8
:10261000BA10882329F1E091BE011E9FF001112418
:10262000E054FE4F408151816281738184819581A4
:102630000E940F108091BE0190E00196877099274B
:102640008093BE01D9CF0E94D30F1092BF01109288
:10265000BE01E0EFF1E086E0DF011D928A95E9F727
:102660002C960FB6F894DEBF0FBECDBFDF91CF9191
:102670001F910895089508950C943B130C943C13F6
:102680000E943E136093FF01709300028093010249
:10269000909302020C94BD0F0C9440130F931F9360
:1026A0000091FF011091000220910102309102027D
:1026B000602B712B822B932B1F910F910C94401345
:1026C0000F931F930091FF011091000220910102CE
:1026D0003091020260237123822393231F910F9173
:1026E0000C9440130F931F930091FF01109100026F
:1026F00020910102309102026027712782279327DF
:102700001F910F910C9440130C943B130E9484135F
:102710006093FB017093FC018093FD019093FE0197
:102720000C94BD0F60E070E0CB010C9486130F9306
:102730001F9341E050E060E070E08A019B0104C01B
:10274000000F111F221F331F8A95D2F7C901B8014C
:102750001F910F910C9486130F931F9341E050E04B
:1027600060E070E004C0440F551F661F771F8A9514
:10277000D2F78091FB019091FC01A091FD01B091F5
:10278000FE018A019B01082B192B2A2B3B2BC90127
:10279000B8011F910F910C9486130F931F9341E082
:1027A00050E060E070E004C0440F551F661F771FC3
:1027B0008A95D2F740955095609570958091FB0170
:1027C0009091FC01A091FD01B091FE018A019B0155
:1027D000082319232A233B23C901B8011F910F9114
:1027E0000C9486130F931F9341E050E060E070E07B
:1027F00004C0440F551F661F771F8A95D2F780913A
:10280000FB019091FC01A091FD01B091FE018A01B4
:102810009B01082719272A273B27C901B8011F91C7
:102820000F910C9486130F931F930091FB0110914D
:10283000FC012091FD013091FE01602B712B822B58
:10284000932B1F910F910C9486130F931F9300915C
:10285000FB011091FC012091FD013091FE016023EC
:102860007123822393231F910F910C9486130F934E
:102870001F930091FB011091FC012091FD0130910B
:10288000FE0160277127822793271F910F910C94D7
:1028900086130895890FE82FE695E695E6958770EB
:1028A00051E001C0550F8A95EAF785E0E89FF001F5
:1028B0001124EA50FE4F20E030E070E04081CB016F
:1028C000022E02C0969587950A94E2F78170819551
:1028D00084278523842781932F5F3F4F253031053F
:1028E00069F70895890F682F669566956695982F04
:1028F000977085E0689FB001112440E050E080E0CF
:10290000FB01E40FF51FEA50FE4F208130E0092E55
:1029100002C0369527950A94E2F721703327042EDA
:1029200001C0220F0A94EAF7822B4F5F5F4F4530B8
:10293000510531F70895BF92CF92DF92EF92FF9247
:102940000F931F93CF93DF938C01C090FB01D09026
:10295000FC01E090FD01F090FE018091FF0190915B
:102960000002A0910102B0910202C82AD92AEA2AE3
:10297000FB2ACFE1D0E0D701C6010C2E04C0B695EA
:10298000A795979587950A94D2F780FD04C0219763
:1029900090F7B12C07C0BC2EB8018C2F0E94FC050B
:1029A0000197A9F38B2DDF91CF911F910F91FF908C
:1029B000EF90DF90CF90BF900895CF93DF93EC011D
:1029C0000E949B14BE010E94FC05DF91CF910895E7
:1029D0001F93CF93DF93EB019091BD01992321F0D9
:1029E000CB010E94DD1413C0882349F0CB010E9463
:1029F0009B14182F682FCE010E944A1404C0CB01EB
:102A00000E947214182FBE01812F0E94FC05DF91D5
:102A1000CF911F91089580910302859585958595A5
:102A20000895809103028770089590910302977032
:102A300081E009F480E00895CF9390913B0392FBED
:102A4000222720F92817E1F0C82F892FC0FB82F92F
:102A500080933B0380913A0390913B030E94271699
:102A60008091100280FF0CC01F92CF9388EA91E002
:102A70009F938F930E94B8020F900F900F900F902A
:102A8000CF91089580913B0382FB882780F991E0E4
:102A900089270C941C1581E00C941C1580E00C9483
:102AA0001C1580910F02089590910F02892B80933D
:102AB0000F020895809590910F02892380930F0251
:102AC000089510920F02089590910E02892B809321
:102AD0000E020895809590910E02892380930E0234
:102AE000089510920E02089510920D02089580919B
:102AF0000402089508950C947A150C947B15909116
:102B00003B0392FD08C090910402981721F0809336
:102B100004020C947D15089580910402882329F005
:102B20001092040280E00C947D150895E091060156
:102B3000F091070180910F028083E0910601F091EE
:102B40000701908180910E02892B8083E09106011C
:102B5000F0910701908180910D02892B80838091F3
:102B60000402882381F0E0910601F0910701908131
:102B7000892B808380910601909107010E94AF16F6
:102B800081110E948C1580910601909107010C948F
:102B9000350B0C947A1590913B0392FD10C098E090
:102BA000899F90011124262B209303020E94AC13CD
:102BB000809103028595859585950C94C9150C9493
:102BC000AC131092030280E00C94C915209103020B
:102BD0008095822380930302982F977041F430E010
:102BE000482F082E000C550B2417350721F490911F
:102BF0003B0392FF07C08595859585950E94CD136F
:102C00000C94E115089580E090E00E94452021E0B9
:102C10008A3E9E4F09F020E0822F089582E090E0E6
:102C20000C94372083E090E00C943720CF9384E01D
:102C300090E00E943720C82F82E290E00E94372067
:102C40002C2F30E0A901582BCA01CF910895CF93C2
:102C5000C92F682F84E090E00E944B206C2F82E205
:102C600090E0CF910C944B208FE090E00C943F20AB
:102C7000AB01BC018FE090E00C945D20AB01BC0186
:102C800083E190E00C945D2060E070E0CB010C9457
:102C90003E166AEE7EEF80E090E00E94692060E0E0
:102CA00082E090E00E944B2060E083E090E00E9490
:102CB0004B201092FF01109200021092010210921C
:102CC000020260E084E090E00E944B2060E082E23B
:102CD00090E00E944B2060E085E090E00E944B2055
:102CE00060E086E090E00E944B206FEF87E090E08C
:102CF0000E944B2040E050E0BA0188E090E00E9442
:102D00005D2060E08DE090E00E944B2040E050E0CC
:102D1000BA0188E190E00E945D2060E087E190E0E8
:102D20000E944B2040E050E0BA018CE190E00E940C
:102D30005D2060E070E080E290E00E94692040E069
:102D400050E0BA0188E190E00E945D200C94D80424
:102D50000C944916682F8EE090E00C944B20FC01F7
:102D6000329697E080E0915029F021912223D9F307
:102D70008F5FF9CF0895662349F0FC0132960896DB
:102D80002191621729F0E817F907D1F780E008953B
:102D900081E008959C01FC0132969FEF80E0419113
:102DA000461789F09F3F19F4411101C0982F8F5F9A
:102DB0008630A9F79F3F39F0F901E90FF11D97FD22
:102DC000FA956283089508959C012A5F3F4FFC01A4
:102DD0004281461301C01282019682179307B9F708
:102DE00008950C94CA160C94E416029626E0FC0191
:102DF00011922A95E9F7089508950C94FC160C9405
:102E0000FC160E94FF160E9429080E94FD1680E011
:102E10000E94E90791E0811101C090E0892F089597
:102E20000C94FC160C94101780914603843049F1E1
:102E30000E94121780E00E94E5051092110220E422
:102E400088E190E00FB6F894A895809360000FBEDB
:102E50002093600083B7817F846083BF83B78160E4
:102E600083BF7894889583B78E7F83BF0FB6F8941D
:102E7000A895809160008861809360001092600046
:102E80000FBE08950C94FC160E94D30F0E94290BCC
:102E90000E94E5050C9442171F920F920FB60F92F5
:102EA00011248F939F93AF93BF938091110281114F
:102EB00013C080913E0390913F03A0914003B091D5
:102EC00041034196A11DB11D80933E0390933F03A2
:102ED000A0934003B0934103BF91AF919F918F9115
:102EE0000F900FBE0F901F90189582E084BD93E065
:102EF00095BD9AEF97BD80936E0008952FB7F89413
:102F000080913E0390913F03A0914003B091410313
:102F10002FBF08952FB7F89460913E0370913F033F
:102F200080914003909141032FBF08959C014FB7BA
:102F3000F89480913E0390913F03A0914003B0919B
:102F400041034FBF821B930B089578941F920F92F9
:102F50000FB60F9211248F939F93AF93BF938091DD
:102F60003E0390913F03A0914003B091410301962D
:102F7000A11DB11D80933E0390933F03A093400396
:102F8000B0934103BF91AF919F918F910F900FBE6E
:102F90000F901F90189581E08093E00080E280936D
:102FA000D8001092C9008FE19EE40197F1F700C0AC
:102FB000000087E090EBDC0180934F039093500377
:102FC000A0935103B09352039CE088E10FB6F894AC
:102FD000A895809360000FBE90936000FFCF909300
:102FE0009B0180939A01089580911D020895CF93CB
:102FF000DF9300D01F92CDB7DEB790914603943097
:1030000019F589837B836A8383E08093E9008FEFDE
:103010009091E800815095FD06C095ED9A95F1F7E5
:1030200000008111F5CF8091E80085FF0DC040E0E0
:1030300050E063E070E0CE0101960E94D81A8091C2
:10304000E8008E778093E8000F900F900F90DF914B
:10305000CF910895BC0184E00C94F717BC0183E084
:103060000C94F71722E02093E9002FEF3091E8004D
:10307000215035FD06C035ED3A95F1F700002111DC
:10308000F5CF2091E80025FF0BC040E050E065E05F
:1030900070E00E94D81A8091E8008E778093E80053
:1030A0000895CF93DF9321E02093E9002FEF309133
:1030B000E800215035FD06C035ED3A95F1F70000E6
:1030C0002111F5CF2091E80025FF14C0EC0140E06C
:1030D00050E068E070E00E94D81A8091E8008E7796
:1030E0008093E80088E0FE01A5E1B2E001900D9236
:1030F0008A95E1F7DF91CF91089582EE91E00E94E9
:103100001F0280914503811109C00E94691C0E9421
:10311000C61C8091E20084608093E20008958EEDE9
:1031200091E00E941F021092450308958AED91E0FC
:103130000C941F0286ED91E00C941F0282ED91E049
:103140000C941F02209113022F5F822F62E30E94D2
:103150001120992319F0209313020895109213025D
:1031600080911402882371F180914603843041F5E7
:103170008091E9008F702091EC00922F917020FDDA
:1031800090E8892B94E09093E9009091EB0090FFF8
:1031900014C09091EE0097FF10C09091E80095FF49
:1031A00003C01092F100F9CF9091E80090FF05C0A4
:1031B0009091E8009E779093E8008F708093E900EB
:1031C00010921402089542E061EC81E00E94E21B3B
:1031D00042E061EC82E00E94E21B42E261EC83E0AB
:1031E0000E94E21B42E261EC84E00C94E21B8091BD
:1031F0004803833009F462C030F4813071F08230CA
:1032000009F49BC008958A3009F487C08B3009F413
:103210006DC0893009F0A9C020C080914703813A70
:1032200009F0A3C08091E800877F8093E800809137
:103230004B0390914C03892B21F468E085E192E0E7
:1032400003C060E080E090E070E00E94231B80916A
:10325000E8008B778093E8000895809147038132DE
:1032600009F083C080914B0390914C03009719F0B3
:10327000029709F07AC08091E800877F8093E80088
:103280008091E80082FD05C0809146038111F8CF4E
:103290006CC02091F3008091F20090E0922B029795
:1032A00029F48091F1008B7F813021F48091F1002D
:1032B00080931D028091E8008B7753C08091470373
:1032C000813A09F052C080914B0390914C03892BB5
:1032D00009F04BC08091E800877F8093E8008091DF
:1032E000E80080FFFCCF8091120136C08091470337
:1032F0008132D9F580914B0390914C03892BA9F52C
:103300008091E800877F8093E8000E94171C8091DD
:103310004903809312010C94D30F809147038132AB
:1033200021F58091E800877F8093E8000E94171CB8
:1033300080914A0380931E02089580914703813A49
:10334000A1F48091E800877F8093E8008091E800F5
:1033500080FFFCCF80911E028093F1008091E800F5
:103360008E778093E8000C94171C08959FB7F8940B
:10337000109214029FBF90914603943009F057C0F9
:103380009091E9009F703091EC00232F217030FD67
:1033900020E8922B24E02093E9002091EB0020FF0D
:1033A00043C02091EE0027FF3FC02091120222234C
:1033B00021F02091E80025FF37C01092120226E08C
:1033C0003091E80035FD15C030914603343061F589
:1033D0003091EB0035FD28C0215021F481E080932D
:1033E000120222C0EFE9FFE03197F1F700C00000C0
:1033F000E7CF8093F1008091E80085FD0AC08091BD
:10340000E80080FFFCCF8091E8008E778093E80091
:1034100006C08FB7F89421E0209314028FBF9F70ED
:103420009093E90080E008959F709093E9008FEFFA
:10343000089584B7877F84BF0FB6F894A8958091CC
:103440006000886180936000109260000FBE90E081
:1034500080E80FB6F89480936100909361000FBEEE
:103460000E94DE0B0E94691C0E94C61C8091E20033
:1034700084608093E20078940E945A1F0E94EC0BB3
:1034800088E091E00E94240B81EC91E00E941F02F1
:10349000809146038530C9F48DEB91E00E941F02B4
:1034A00080914603853079F40E941417809144037B
:1034B0008823B1F30E940117882391F30E94C21A56
:1034C0000E94D30FEDCF0E9444170E941C0C0E9453
:1034D000E80BDECF0C946C1A292F332723303105EB
:1034E000C9F060F42130310581F02230310509F056
:1034F00041C084E790E022E332E040C02132310550
:10350000E1F02232310531F135C082E190E026EA66
:1035100032E034C099278130910549F028F00297B4
:1035200049F5E6EEF1E005C0EEE2F2E002C0E6E0C9
:10353000F2E0849190E09F0121C064307105D0F4E5
:10354000660F771FFB01EE56FE4F2081318189E027
:1035500090E014C06430710568F4FB01EE0FFF1FAA
:10356000E657FE4F20813181FB01EA57FE4F8081F3
:1035700090E004C080E090E020E030E0FA01318388
:103580002083089580E189BD82E189BD09B400FEF0
:10359000FDCF8091D8008F7D8093D8008091E0008E
:1035A00082608093E0008091E00081FDFCCF08956F
:1035B000CF92DF92EF92FF920F931F93CF93DF93FF
:1035C000EC018B017A010E94361C811133C0E11499
:1035D000F10439F0F70180819181081B190BC80FA4
:1035E000D91FC12CD12C0115110519F18091E800CA
:1035F00085FD16C08091E8008E778093E800E11485
:10360000F10449F0F70180819181C80ED91ED18261
:10361000C08285E00FC00E94361C882321F30AC0B7
:1036200089918093F10001501109FFEFCF1ADF0A51
:10363000DACF80E0DF91CF911F910F91FF90EF9053
:10364000DF90CF90089520914D0330914E032617BF
:10365000370748F06115710539F42091E8002E779D
:103660002093E80001C0B901FC0120E0611571055B
:1036700079F1809146038823F1F18530F1F1809151
:10368000E80083FD3CC08091E80082FD2EC080915F
:10369000E80080FFEBCF2091F3008091F20090E0F2
:1036A000922B6115710551F08830910538F4219104
:1036B0002093F100615071090196F3CF21E0089742
:1036C00009F020E08091E8008E778093E800CECF6B
:1036D0002111CFCF0AC080914603882361F0853045
:1036E00061F08091E80083FD0AC08091E80082FFCC
:1036F000F2CF80E0089582E0089583E0089581E0AC
:10370000089520914D0330914E032617370748F056
:103710006115710539F42091E8002E772093E800B7
:1037200001C0B901FC0120E06115710591F18091A2
:103730004603882309F440C0853009F43FC08091D6
:10374000E80083FD3DC08091E80082FD2FC080919C
:10375000E80080FFE9CF2091F3008091F20090E033
:10376000922B6115710559F08830910540F4249130
:103770002093F1003196615071090196F2CF21E05A
:10378000089709F020E08091E8008E778093E800A8
:10379000CBCF2111CCCF0AC080914603882361F0A2
:1037A000853061F08091E80083FD0AC08091E800D7
:1037B00082FFF2CF80E0089582E0089583E00895CB
:1037C00081E00895982F973068F59093E900981755
:1037D00039F07091EC002091ED005091F00003C0A1
:1037E000242F762F50E021FD02C09F5FECCF309157
:1037F000EB003E7F3093EB003091ED003D7F309346
:10380000ED003091EB0031603093EB007093EC00F1
:103810002093ED005093F0002091EE0027FDE5CFBE
:1038200080E008958F708093E90081E00895809191
:10383000470387FF11C08091E80082FD05C0809199
:1038400046038111F8CF11C08091E8008B770BC03F
:1038500080914603882349F08091E80080FFF8CFEB
:103860008091E8008E778093E80008952091E4002D
:103870003091E50095E64091EC00842F817040FF87
:1038800023C08091E80080FD1DC0809146038823FD
:1038900099F0853099F08091EB0085FD11C0409141
:1038A000E4005091E5002417350729F3915011F0F9
:1038B0009A01E1CF84E0089582E0089583E00895BD
:1038C00081E0089580E008954091E80042FFDDCF57
:1038D00008950E94D71C0E94DF1CE0EEF0E080817A
:1038E00081608083E8EDF0E080818F77808319BC70
:1038F000A7EDB0E08C918E7F8C9380818F7E80834A
:103900001092450308950F931F93CF93DF930E9466
:10391000D71C0E94DF1CC8EDD0E088818F77888398
:1039200088818068888388818F7D888319BC109204
:10393000460310924203109244031092430300EE98
:1039400010E0F80180818B7F80838881816088838B
:1039500042E060E080E00E94E21BE1EEF0E0808166
:103960008E7F8083E2EEF0E08081816080838081C1
:1039700088608083F80180818E7F80838881806168
:103980008883DF91CF911F910F910895E8EDF0E0CA
:1039900080818F7E8083E7EDF0E08081816080838D
:1039A00084E082BF81E0809345030C94831CE8EDA2
:1039B000F0E080818E7F80831092E2000895109263
:1039C000DA001092E10008951F920F920FB60F9245
:1039D00011242F933F934F935F936F937F938F9314
:1039E0009F93AF93BF93EF93FF938091E10082FF8A
:1039F0000BC08091E20082FF07C08091E1008B7FC5
:103A00008093E1000E94A2188091DA0080FF1FC01D
:103A10008091D80080FF1BC08091DA008E7F809358
:103A2000DA008091D90080FF0DC080E189BD82E17C
:103A300089BD09B400FEFDCF81E0809346030E945A
:103A40007D1805C019BC109246030E948F18809102
:103A5000E10080FF19C08091E20080FF15C08091D5
:103A6000E2008E7F8093E2008091E200806180938B
:103A7000E2008091D80080628093D80019BC85E074
:103A8000809346030E949A188091E10084FF30C021
:103A90008091E20084FF2CC080E189BD82E189BD74
:103AA00009B400FEFDCF8091D8008F7D8093D800AF
:103AB0008091E1008F7E8093E1008091E2008F7E13
:103AC0008093E2008091E20081608093E200809127
:103AD0004203882311F084E007C08091E30087FD52
:103AE00002C081E001C083E0809346030E949E18DB
:103AF0008091E10083FF29C08091E20083FF25C00F
:103B00008091E100877F8093E10082E0809346030B
:103B1000109242038091E1008E7F8093E1008091BA
:103B2000E2008E7F8093E2008091E20080618093CA
:103B3000E20042E060E080E00E94E21B8091F00041
:103B400088608093F0000E949618FF91EF91BF91DA
:103B5000AF919F918F917F916F915F914F913F9125
:103B60002F910F900FBE0F901F9018951F920F92DC
:103B70000FB60F9211242F933F934F935F936F9340
:103B80007F938F939F93AF93BF93CF93DF93EF93E5
:103B9000FF93C091E900CF708091EC00D82FD170D5
:103BA00080FDD0E81092E9008091F000877F80933B
:103BB000F00078940E94FA1D1092E9008091F000C4
:103BC00088608093F000CD2BCF70C093E900FF9107
:103BD000EF91DF91CF91BF91AF919F918F917F91A5
:103BE0006F915F914F913F912F910F900FBE0F906A
:103BF0001F9018951F93CF93DF93CDB7DEB7AA9789
:103C00000FB6F894DEBF0FBECDBFE7E4F3E08091BE
:103C1000F100819323E0EF34F207C9F70E94F7180F
:103C20008091E80083FF2EC1809147039091480363
:103C3000492F50E04A30510508F024C1FA01E059FB
:103C4000FF4F0C943120803821F0823809F01AC1DE
:103C500008C08091430390914403992389F08260C6
:103C60000FC080914B038F70873008F00BC1809399
:103C7000E9008091EB0085FB882780F91092E9002C
:103C80009091E800977F9093E8008093F100109264
:103C9000F100D1C0282F2D7F09F0F4C0882319F03E
:103CA000823061F0EFC080914903813009F0EAC0B1
:103CB000933009F080E0809344032EC08091490343
:103CC00081112AC080914B038F702FEF280F26306F
:103CD00008F0D8C08093E9002091EB0020FF1CC0C1
:103CE000933021F48091EB00806214C09091EB003E
:103CF00090619093EB0021E030E0A90102C0440FF5
:103D0000551F8A95E2F74093EA001092EA008091ED
:103D1000EB0088608093EB001092E9008091E8004E
:103D2000877F8093E8000E94171CACC08111AAC055
:103D3000109149031F778091E3008078812B809355
:103D4000E3008091E800877F8093E8000E94171CC1
:103D50008091E80080FFFCCF8091E3008068809331
:103D6000E300111102C082E001C083E080934603AA
:103D700089C08058823008F085C0809149039091B5
:103D80004A038C3D53E0950779F583E08A838AE204
:103D900089834FB7F894DE01139620E03EE051E2AC
:103DA000E32FF0E050935700E49120FF03C0E29529
:103DB000EF703F5FEF708E2F90E0EA3010F0C79603
:103DC00001C0C0968D939D932F5F243149F74FBF5B
:103DD0008091E800877F8093E8006AE270E0CE017E
:103DE00001960E94231B16C060914B0370914C03F7
:103DF000AE014F5F5F4F0E946A1ABC01892B09F424
:103E000041C09091E800977F9093E80089819A8162
:103E10000E94811B8091E8008B778093E80032C07C
:103E2000803881F58091E800877F8093E800809159
:103E300042038093F1008091E8008E7772CF811168
:103E400021C08091490390914A0399270297D4F4A5
:103E50008091E800877F8093E800809149038093F8
:103E600042030E94171C80914203811106C0809179
:103E7000E30087FD02C081E001C084E08093460337
:103E80000E94E3188091E80083FF0AC08091E80057
:103E9000877F8093E8008091EB0080628093EB0045
:103EA000AA960FB6F894DEBF0FBECDBFDF91CF91BB
:103EB0001F910895CF93809146038823A1F0C0916C
:103EC000E900CF709091EC00892F817090FD80E81F
:103ED000C82B1092E9008091E80083FD0E94FA1D32
:103EE000CF70C093E900CF9108950E947C1F689421
:103EF000B1110C940B2008950E94F01F88F09F5779
:103F000098F0B92F9927B751B0F0E1F0660F771FFD
:103F1000881F991F1AF0BA95C9F714C0B13091F0F3
:103F20000E940A20B1E008950C940A20672F782F90
:103F30008827B85F39F0B93FCCF3869577956795B8
:103F4000B395D9F73EF490958095709561957F4F24
:103F50008F4F9F4F0895E89409C097FB3EF49095CA
:103F60008095709561957F4F8F4F9F4F9923A9F052
:103F7000F92F96E9BB279395F695879577956795E1
:103F8000B795F111F8CFFAF4BB0F11F460FF1BC025
:103F90006F5F7F4F8F4F9F4F16C0882311F096E9B8
:103FA00011C0772321F09EE8872F762F05C0662366
:103FB00071F096E8862F70E060E02AF09A95660F1F
:103FC000771F881FDAF7880F9695879597F90895D8
:103FD00057FD9058440F551F59F05F3F71F04795BA
:103FE000880F97FB991F61F09F3F79F0879508959F
:103FF000121613061406551FF2CF4695F1DF08C0BE
:10400000161617061806991FF1CF869571056105DA
:1040100008940895E894BB2766277727CB0197F982
:104020000895991B79E004C0991F961708F0961B14
:10403000881F7A95C9F780950895AA1BBB1B51E18B
:1040400007C0AA1FBB1FA617B70710F0A61BB70B08
:10405000881F991F5A95A9F780959095BC01CD01AD
:104060000895EE0FFF1F0590F491E02D0994F99942
:10407000FECF92BD81BDF89A992780B50895A6E13B
:10408000B0E044E050E00C947120A8E1B0E042E0E0
:1040900050E00C947120262FF999FECF92BD81BD7E
:1040A000F89A019700B4021639F01FBA20BD0FB676
:1040B000F894FA9AF99A0FBE08950396272F0E9452
:1040C0004C200E944B20252F0E944C20242F0C9422
:1040D0004C200196272F0E944C200C944B20DC0191
:1040E000CB01FC01F999FECF06C0F2BDE1BDF89A03
:1040F000319600B40D9241505040B8F70895F894AD
:02410000FFCFEF
:10410200130016001B000502F417511832182E185E
:104112002A18013536679091929394959697C6F135
:10412200F3F5F6F7E200E900EA00B500B600B700E1
:10413200CD008301CC008A01920194012102230265
:1041420024022502260227022A02B300B4006F00CD
:104152007000818283E200E900EA00B500B600B790
:1041620000CD008301CC008A019201940121022337
:104172000224022502260227022A02B300B4006F9B
:104182000070008182834047322253030C03DA021B
:0A419200B80244025D0276028F02BB
:00000001FF
