:100000000C94B5010C94FC010C94FC010C94FC01C3
:100010000C94FC010C94FC010C94FC010C94FC016C
:100020000C94FC010C94FC010C947A1C0C944C1D57
:100030000C94BE160C94FC010C94FC010C94FC0175
:100040000C94FC010C94FC010C94FC010C94FC013C
:100050000C94FC010C9417170C94FC010C94FC01FB
:100060000C94FC010C94FC010C94FC010C94FC011C
:100070000C94FC010C94FC010C94FC010C94FC010C
:100080000C94FC010C94FC010C94FC010C94FC01FC
:100090000C94FC010C94FC010C94FC010C94FC01EC
:1000A0000C94FC010C94FC010C94FC01590D590DAD
:1000B0008B0D8B0DD80DFF0EFF0EFF0EF60D8F0E64
:1000C000A00EA00E9B0F9B0FAD0FAD0FA40FAD0F99
:1000D000AD0FAD0F9B0F9B0FA90FAD0FAD0FA90F6C
:1000E000B91DE01DD81EE01DD81E2C1E4F1ED81EA7
:1000F000A61EB51E4B4C3A206B633A2025752C206A
:10010000636F6C3A2025752C20726F773A20257525
:100110002C20707265737365643A2025750A00524D
:100120006177205D20583A2025642C20593A2025FB
:10013000640A0044454255473A2064697361626C21
:1001400065642E0A0044454255473A20656E616257
:100150006C65642E0A000A0025303862003A2000DF
:1001600025303258000A722F632030313233343553
:1001700036370A000A002530325820006B65796254
:100180006F6172645F7265706F72743A20000A006A
:1001900025303258006B6579626F6172645F7365F8
:1001A000745F6C65643A20005B735D004B65796237
:1001B0006F6172642073746172742E0A005B575D04
:1001C000005B535D005B525D005B445D005B435D23
:1001D000001E0354007200610063006B0062006146
:1001E000006C006C0020004E0061006E006F00008B
:1001F00000120350006C006F006F00700079004324
:10020000006F0000000403090409027400040100E7
:10021000A0320904000001030101000921110100BD
:1002200001224000070581030800010904010001C3
:100230000301020009211101000122470007058284
:100240000308000109040200010300000009211154
:100250000100012232000705830320000109040385
:100260000002030000000921110100012222000701
:10027000058403200001070504032000011201107A
:1002800001000000084350AB1E01000102000106FE
:1002900031FF0974A1010975150026FF009520752D
:1002A0000881020976150026FF0095207508910245
:1002B000C005010980A101850319012AB7001501B4
:1002C00026B700950175108100C0050C0901A10138
:1002D000850419012AA002150126A00295017510B6
:1002E0008100C005010902A1010901A10005091948
:1002F00001290815002501950875018102050109EC
:100300003009311581257F95027508810609381558
:1003100081257F950175088106050C0A3802158133
:10032000257F950175088106C0C005010906A10158
:10033000050719E029E715002501950875018102D7
:100340009501750881010507190029FF150026FF91
:1003500000950675088100050819012905950575A0
:10036000019102950175039101C011241FBECFEFC9
:10037000DAE0DEBFCDBF04B603FE27C080914F0395
:1003800090915003A0915103B09152038730904B4C
:10039000A740B04BD1F410924F031092500310922B
:1003A00051031092520314BE84B7877F84BF0FB6E7
:1003B000F894A89580916000886180936000109205
:1003C00060000FBEE0E0F8E3099511E0A0E0B1E0C5
:1003D000EEE2F0E402C005900D92AA39B107D9F718
:1003E00023E0AAE9B1E001C01D92AF34B207E1F702
:1003F0000E94AD190C9415200C940000FF93EF930C
:10040000E0919A01F0919B01309709F00995EF91E5
:10041000FF910895FC018591803011F0EFDFFBCF53
:100420000895FF27E0E230E247FF0CC0419597FFB7
:1004300009C0EDE26095709580959095611D711DE4
:10044000811D911D27FF02C0219530E350E2AA27AC
:10045000660F771F881F991FAA1FA41710F0A41BEF
:1004600063955A95A9F7AA3008F0A95FA05DAF93EC
:10047000F395611571058105910541F7ED3211F490
:10048000EF93F395F21718F43F93F395FBCF8F9109
:10049000B5DFFA95E1F70895E991F99185918030FA
:1004A00021F0853219F0AADFF9CF089520E0E89411
:1004B00055915532C1F3503311F4689455915A3324
:1004C00048F4505390F3220F022E220F220F200DDA
:1004D000250FF4CF0EF4219589919991533619F394
:1004E000533729F1533559F1BC0188279927E894EE
:1004F0005C3621F48991999168945591543639F478
:1005000046EF7EF077FF0DC08FEF9FEF0AC05537A3
:100510004AE039F0583540E121F0523642E009F026
:100520000895FF93EF937DDFEF91FF91B7CFFF9396
:10053000EF93FC0181918030B9F360DFFBCFFF9333
:10054000EF9368DFF1CFDF93CF93CDB7DEB725967A
:10055000A3DFCF91DF910895279A3E9A249A0895B8
:100560002C9808952C9A08953E98469898E080E03B
:100570002F9825E02A95F1F7000026B126FB2227C7
:1005800020F9880F822B2F9A25E02A95F1F7000099
:10059000915071F708953E9A27E030E090E02F984F
:1005A000AC01022E02C0559547950A94E2F740FF30
:1005B00002C0469A01C046984AE04A95F1F700C049
:1005C0002F9A2150310958F785E18A95F1F70000FB
:1005D0000895CF93DF93D82FC62F0E94B0028D2F9E
:1005E0000E94CB028C2F0E94CB02DF91CF910C9402
:1005F000B20287FD80680895CF93DF930E94B00216
:1006000083E60E94CB020E94B402C82F0E94B4026B
:10061000D82F0E94B2028C2F0E94F902C82F8D2F72
:100620000E94F902982F8C2FDF91CF910895682FA7
:1006300089E10C94E9021092E70210925F02109295
:10064000A3028FEF93E09093A5028093A4021092EF
:10065000EA021092E9021092A60210922E03109262
:10066000350310923403109232031092310310922A
:1006700060021092A2029093300380932F03109295
:10068000200210921F021092EB021092610210924F
:10069000EF021092EE021092A8021092A70210929E
:1006A000E802109233031092ED021092EC021092C5
:1006B000630210926202089508951F93CF93DF930F
:1006C000EC01162FBA01550F880B990B0E94431F9E
:1006D00090580E940B1F69831A83DF91CF911F915D
:1006E0000895EF92FF920F931F93CF93DF937C01B6
:1006F0000E94FC02811102C0992349F1209110024D
:10070000092F092E000C110BC82F082E000CDD0B31
:1007100023FF12C020FF10C01F939F93DF938F937E
:100720008FE191E09F938F930E94A3020F900F900F
:100730000F900F900F900F90A801BE01C701DF919D
:10074000CF911F910F91FF90EF900C945D03DF917B
:10075000CF911F910F91FF90EF900895DF92EF924C
:10076000FF920F931F93CF93DF9300D000D01F927F
:10077000CDB7DEB78C017B01FB0182811F928F9385
:1007800081811F928F9380811F928F931F930F936C
:1007900084EF90E09F938F930E94A3020FB6F8948A
:1007A000DEBF0FBECDBFF7018081813069F481814A
:1007B00081110AC00E94F01690939D0180939C01C4
:1007C000F701828180939E01B701C8010E94E9046C
:1007D000D82E882309F447C00932FDE51F0711F51B
:1007E000F70182818823F1F08091360390E0019631
:1007F00063E070E00E94B31F80933603609136037C
:100800007091370380913803909139030E94AB15A2
:10081000E0913603F0E0EE0FFF1FE050FF4F8081C4
:100820000E941703015F110908301105E0F40E94CE
:100830007C083A834B835C836D83F701828141E0BE
:1008400050E001C0440F0A95EAF7882311F0422BCB
:1008500002C0409542235A816B817C818D810E9428
:100860009C080E9446088D2D0F900F900F900F90BE
:100870000F90DF91CF911F910F91FF90EF90DF903C
:1008800008950F931F93CF93DF93CDB7DEB7619792
:100890000FB6F894DEBF0FBECDBF80911002886006
:1008A000809310028098889884988C9881E1E3E185
:1008B000F1E0DE01119601900D928A95E1F7FE01BB
:1008C00031969E012E5E3F4F41E050E08191A82F6E
:1008D000A295AF70B0E091966C9191978F708A015C
:1008E00002C0000F111F8A95E2F7C801962F982BBE
:1008F00091969C93919792969C919297809589233B
:1009000092968C932E173F0709F761960FB6F894CD
:10091000DEBF0FBECDBFDF91CF911F910F910C9421
:100920008E0B0E94AC020C941B03CF93DF9300D07C
:1009300000D01F92CDB7DEB70E947C0829833A838E
:100940004B835C836D83CE0101960E945C03CE01D4
:1009500001960E94710349815A816B817C818D814E
:100960000E949C080E9446080F900F900F900F90D5
:100970000F90DF91CF91089582E0809336036091CC
:1009800036037091370380913803909139030E94A8
:10099000AB150C94B7150E94A7156093360370939E
:1009A00037038093380390933903643010F00E942A
:1009B000BC040C94D207E0913603F0E0EE0FFF1F69
:1009C000E050FF4F80810E9417030C948C0B81E054
:1009D000089581E0089508950C94EB041F93CF933C
:1009E000DF9300D000D01F92CDB7DEB749835A8382
:1009F0006B833091BD0189819A81311114C06623C6
:100A000059F0222349F00E945114182F682F898130
:100A10009A810E94001403C00E942814182F698133
:100A20007A81812F04C00E94511469817A810F90CC
:100A30000F900F900F900F90DF91CF911F910C941A
:100A4000C905FC01262F4081518162817381848117
:100A50000C94EE04CF93DF93EC0160E00E9421053B
:100A6000BE01DF91CF910C94EC040E9476158111A8
:100A700002C00E941A160C94CB040C94D00708955F
:100A80000E94890F0E943F052FEF84E39CE02150D4
:100A900080409040E1F700C000000C943D170F9398
:100AA0001F93CF93DF93EC0161E00E9421058C013D
:100AB000BE010E94AE03882309F442C0BE01C801F2
:100AC0000E942C098823E1F1BE01C8010E947E0921
:100AD0008823B1F1BE01C8010E94A90A882381F1CF
:100AE0008A81882331F101308CE5180751F00F3DE0
:100AF0008CE51807D9F001151C45D9F40E94400572
:100B00001FC080911002C82FC095C170C0FB80F932
:100B100080931002CC2329F085E491E00E940A0220
:100B20000FC083E391E00E940A020BC00E941A16D4
:100B300007C0CE01DF91CF911F910F910C94E70474
:100B4000C0E08C2FDF91CF911F910F910895829576
:100B5000982F937344E0949F900111248C7C869588
:100B60008695282B822F8575880F2A7A2695822BC9
:100B7000089508950C94B90581E008950C94BC057E
:100B8000CF93C82F0E94BA058C2F0E94BE05CF912B
:100B90000895972F70E0690F711DFB01E80FF11D9B
:100BA000EE0FFF1FED5CFE4F859194910895CF935A
:100BB000DF930E94C9050E94C806EC018115924589
:100BC000F0F5C11581E5D80708F0A9C0C83ED105E8
:100BD00028F5C03ED10508F0D7C0C83AD10578F451
:100BE000C53AD10508F074C0C130D10509F4CCC0B4
:100BF00008F4C8C0C430D10508F0C6C0C3C0CF3B9C
:100C0000D10508F0BFC0C85AD0E0CC0FDD1FCC5DC5
:100C1000DE4F0990D881C02DD464B6C0C11590E5CF
:100C2000D90708F060C0C11520E4D20708F058C009
:100C3000CE019A9581159F4108F4A6C0A3C0C115A5
:100C400086E5D80718F5C11595E5D90708F080C0E5
:100C5000C11524E5D20708F076C09E012370332722
:100C60008C2F86958695C115D34508F05DC0C1E0EF
:100C7000D0E002C0CC0FDD1F2A95E2F720E2829F70
:100C8000C0011124C82BD92BDC687EC0C1152AE510
:100C9000D20778F4C11589E5D80708F063C0C115FB
:100CA00098E5D90708F46EC0DC2FCC27C06FD06A56
:100CB0006BC0CE0190568115904208F063C08D2F15
:100CC0008F710E945C07DD27D0628F71D82B5CC0CA
:100CD000C55AD0E0CE5ADE4FC881D0E0D06454C0AF
:100CE000DF70D06A51C0CE0174E0969587957A95F1
:100CF000E1F783709C2F937021E030E002C0220F57
:100D0000331F9A95E2F73C68382BCF70C695C6958D
:100D100080E2C89FE0011124C22BD32B35C0DC2F09
:100D2000CC27C16FD06A30C0C1E0D0E002C0CC0F88
:100D3000DD1F2A95E2F720E2829FC0011124C82B13
:100D4000D92BDA6821C0DC2FCC27C46FD06A1CC035
:100D50008C2F0E945C078F71C82FD0E0DC2FCC272E
:100D6000D06212C08C2F8F700E945C0794E0D695E1
:100D7000C7959A95E1F7CF70D0E0DC2FCC27D069EA
:100D8000C82B02C0C0E0D0E0CE01DF91CF91089522
:100D90008238910569F1B0F48133910509F46DC091
:100DA00048F48932910509F463C08A32910509F447
:100DB00069C008958533910509F455C089339105BB
:100DC000B9F00895833E910569F138F4803E9105AC
:100DD000B1F0823E910509F10895863E9105A9F191
:100DE000873E9105B9F1843E910509F064C023C0A6
:100DF0002091400320FD4FC021FD4DC008958091FA
:100E0000400380FD44C08091410380FF44C0809135
:100E1000400384FD42C083EE4DC08091400382FFB9
:100E200038C0F5CF8091400382FD33C080914103EB
:100E300080FD31C0ECCF8091410381FF32C08091B1
:100E4000400384FD2AC087EE35C08091400383FFB4
:100E500026C0F5CF8091400383FD21C080914103DE
:100E600081FD1FC0ECCF8091400385FD1CC01DC0DB
:100E70008091400385FD19C016C08091400386FD16
:100E800016C017C08091400386FD13C010C089E3CF
:100E900011C082EE0FC080EE0DC080E00BC086EE68
:100EA00009C084EE07C089E205C085E303C08AE279
:100EB00001C081E390E008959091400392FF0DC03E
:100EC000282F2871283019F4877F846006C0282FC6
:100ED0002471243011F48B7F886093FF0DC0282F7C
:100EE0002871283119F4877E846106C0282F247167
:100EF000243111F48B7E88612091410320FF0DC0C5
:100F0000382F3871383019F4877F816006C0382F48
:100F10003171313011F48E7F886021FF0DC0282F90
:100F20002871283119F4877E816106C0282F21712C
:100F3000213111F48E7E886194FD877E0895E82F1B
:100F4000F0E0E55CFC4F8081089585E691E00E9429
:100F50000A021F921F9280E691E09F938F930E9456
:100F6000A3028DE591E00E940A0280913B030E945A
:100F7000A7051F928F9388E591E09F938F930E941E
:100F8000A3028DB79EB708960FB6F8949EBF0FBE0A
:100F90008DBF86E591E00C940A0208950C94CD076C
:100FA0000C94CE070C94CD070898109A10923A032F
:100FB00010923B0381E00E94F9070C943505CF9312
:100FC00080B18095817090913A03981721F08093B9
:100FD0003A03C1E001C0C0E02C2F41E06BE373E0B5
:100FE0008AE393E00E94FA070E943D058C2FCF917F
:100FF00008950895FB01DC0150E09D01281B390B89
:10100000241735071CF42D912193F7CF0895EF9203
:10101000FF920F931F93CF93DF93CDB7DEB72A973D
:101020000FB6F894DEBF0FBECDBF6B837C838D837C
:10103000088719872A874E1118C0552311F0F51219
:1010400014C08B81882319F0988598130EC08D8168
:10105000882319F09A85981308C09C81992339F048
:1010600081E02985291304C002C081E001C080E02D
:1010700081702A960FB6F894DEBF0FBECDBFDF9108
:10108000CF911F910F91FF90EF900895EF92FF92F3
:101090000F931F93E0909F01F090A0010091A10198
:1010A0001091A2012091A3014091A4015091A501AA
:1010B0006091A6017091A7018091A8010E94070884
:1010C000882321F084EA91E00E94340B1092A5015C
:1010D0001092A6011092A7011092A80185E0E4EAFF
:1010E000F1E0AFE9B1E001900D928A95E1F71F912F
:1010F0000F91FF90EF900895CF93DF9300D000D031
:101100001F92CDB7DEB785E0E4EAF1E0DE0111968B
:1011100001900D928A95E1F729813A814B815C819A
:101120006D8170E080E090E00F900F900F900F9035
:101130000F90DF91CF910895CF93DF9300D000D02F
:101140001F92CDB7DEB749835A836B837C838D832F
:1011500085E0FE013196A4EAB1E001900D928A95F6
:10116000E1F70F900F900F900F900F90DF91CF91BC
:1011700008950F931F93CF93DF93C42FD22FFC01B9
:1011800082818823C9F04093AB010E94F0169093AE
:10119000AA018093A90180E28C0F883008F057C023
:1011A000C77081E001C0880FCA95EAF7DF91CF913F
:1011B0001F910F910C94140D8091AB01481330C016
:1011C0008091A9019091AA010E940817883C91057D
:1011D00038F510E21D0FCD17B9F080E28C0F883082
:1011E00040F4C77081E001C0880FCA95EAF70E94F9
:1011F0001B0D183028F581E09D2F977001C0880FD6
:101200009A95EAF70E94140D802F0E940B0D18305A
:10121000F0F4D77081E001C0880FDA95EAF70AC0D0
:1012200080E28C0F883098F4C77081E001C0880F8D
:10123000CA95EAF7DF91CF911F910F910C941B0D86
:10124000802FDF91CF911F910F910C940B0DDF91A7
:10125000CF911F910F9108950F939C01CB01243FD3
:101260004CE5340731F188F4293DFCE53F07D9F01E
:101270002A3D4CE5340779F1283D3C45A9F506E2C5
:1012800021EE41EE68ED7CE52BC0263FFCE53F07F3
:10129000E1F0A8F0273F3C4539F507E225EE46EEA0
:1012A00067EF7CE51DC007E225EE45EE69ED7CE5C4
:1012B00017C006E221EE40EE64EF7CE511C007E2C4
:1012C00025EE44EE65EF7CE50BC006E221EE42EE32
:1012D00066EF7CE505C008E221E045EE6AED7CE5BD
:1012E0000E94B90880E008C0FC018281882319F0BF
:1012F0001092AB0101C081E00F910895CF93DF936D
:10130000EC01FB018281882309F41FC1C230FCE596
:10131000DF0708F41BC1C6319CE5D90738F09E01F0
:101320002B5F3C452930310508F010C10E9489151A
:101330009093410380934003C031ECE5DE0709F44C
:10134000C3C008F041C0C8308CE5D80709F49AC082
:10135000F0F4C430ECE5DE0709F487C068F4C2306D
:101360008CE5D80709F477C0C330DC4509F0E3C049
:1013700080914003826076C0C630ECE5DE0709F458
:101380006EC008F07BC08091400388606BC0CC3099
:101390008CE5D80709F485C068F4CA30ECE5DE07AF
:1013A00009F474C008F079C00E94890F809140034D
:1013B000806858C0CE308CE5D80709F476C008F0B4
:1013C0007FC0809140038BC0CC3FECE5DE0709F481
:1013D0004FC018F5C3318CE5D80709F47DC078F407
:1013E000C131ECE5DE0709F473C0C231DC4509F018
:1013F000A2C00E94890F809140038F7733C0C5310E
:101400008CE5D80709F472C008F486C0CB3FDC45F0
:1014100009F091C0809141033EC0C115FDE5DF0791
:1014200009F45FC058F4CE3F9CE5D90709F444C0E5
:1014300008F43FC08091410382602DC0C230FDE5B9
:10144000DF0709F475C008F45DC0C330DD4509F05D
:1014500072C080E06EC080914003816003C08091C3
:10146000400380618093400366C08091400311C0B7
:10147000809141038260809341035DC0809140036D
:101480008062F0CF809140038064ECCF8091400374
:1014900088608460E7CF8160EECF809140038E7FCB
:1014A000E1CF809140038D7FDDCF80914003877F26
:1014B000D9CF8091410318C0809141038D7FDBCF4C
:1014C000809140038F7ECECF809140038F7DCACF25
:1014D000809140038F7BC6CF80914003877F8B7FB5
:1014E000C1CF809141038D7F8E7FC5CF8091400316
:1014F00082FB222720F991E0922790FB82F990FB52
:1015000083F9B0CF80914103982F909591708E7F91
:10151000892B90FB81F9AFCF0E94890F8091400306
:1015200087FB222720F991E0922790FB87F99ACF39
:1015300081E00E941C1680914003909141030E941B
:101540009A150E94890F80E001C081E0DF91CF9160
:101550000895CF93DF9386319C4541F5EB010E94BE
:10156000D214982F8A812091060130910701882397
:1015700079F09A7A81E009F480E08093AC019111CE
:1015800002C069E201C065E3C9010E9463160AC096
:101590008091AC01811102C069E201C065E3C9011B
:1015A0000E9465160E94131580E001C081E0DF9162
:1015B000CF9108959093B2018093B1010895E09185
:1015C000B101F091B201309721F00190F081E02D4E
:1015D000099480E00895EF92FF920F931F93CF93A9
:1015E000DF93E091B101F091B2013097B1F18C013C
:1015F0000280F381E02D09958091100282FF2DC0B9
:1016000080FF04C08CE791E00E940A02E80118E024
:1016100086E7E82E81E0F82E8091100280FF0BC053
:1016200088811F928F93FF92EF920E94A3020F90E6
:101630000F900F900F90115021961111EDCF8091C6
:10164000100280FF0AC084E791E0DF91CF911F91E3
:101650000F91FF90EF900C940A02DF91CF911F91B0
:101660000F91FF90EF900895E091B101F091B201D8
:10167000309721F00480F581E02D099408952091A0
:10168000AF013091B0012817390771F09093B00184
:101690008093AF01E091B101F091B201309721F058
:1016A0000680F781E02D099408952091AD013091D5
:1016B000AE012817390771F09093AE018093AD0108
:1016C000E091B101F091B201309721F00084F185F1
:1016D000E02D099408950E94FC166093B90170935F
:1016E000BA018093BB019093BC016093B5017093E4
:1016F000B6018093B7019093B801089585B78068CB
:1017000085BF85B7806885BF089581E008950C94F2
:10171000850B08950C94890B0C94890B0C94890B00
:101720000C94890B0E947E0B8AE499E10E94611758
:101730000E94900B0C9441040E94E7160E94D4076B
:101740000E9466170E9491040C94DB04CF93C82F6B
:101750008091100282FF1EC080FF04C085E991E0E5
:101760000E940A028091100280FF0CC01F92CF934A
:1017700080E991E09F938F930E94A3020F900F90B6
:101780000F900F908091100280FF04C08EE891E0CE
:101790000E940A028C2FCF910C94C0050F931F93C7
:1017A000CF93DF93CDB7DEB72A970FB6F894DEBF9D
:1017B0000FBECDBF0E948A0B0E94890B0E94DF07DB
:1017C00081110E946B0B80E00E949F07182F0091EF
:1017D000B401082711F18091100281FD0E94A50734
:1017E00000FF1BC00E94870B882381F01E821F828E
:1017F000117018870E94F0168160782F9A87898768
:101800004E815F8168858A850E94400C9091B40169
:1018100081E089278093B40110C08FEF89838A8388
:101820001B820E94F0168160782F9D838C834981F2
:101830005A816B818D810E94400C0E9495040E9408
:10184000DF0A9091B301891781F00E94DF0A80932B
:10185000B3012A960FB6F894DEBF0FBECDBFDF915D
:10186000CF911F910F910C94A60B2A960FB6F89466
:10187000DEBF0FBECDBFDF91CF911F910F910895B5
:10188000DF92EF92FF920F931F93CF93DF93CDB729
:10189000DEB72B970FB6F894DEBF0FBECDBFF42E88
:1018A000052F162FE72ED82E61110E94F214FE018B
:1018B000319686E0DF011D928A95E9F77E2D4F2D46
:1018C000502F612F8D2D9E810E9442122B960FB6B4
:1018D000F894DEBF0FBECDBFDF91CF911F910F9166
:1018E000FF90EF90DF900895FC01808191810E942C
:1018F00093140895CF93882309F448C0C82F8CEF20
:101900008C0F813AD0F46C2F8091060190910701E1
:101910000E942D16882349F06C2F8091060190912A
:1019200007010E9465160E9413156C2F8091060115
:10193000909107010E9463160CC080E28C0F8830E2
:1019400058F4C77081E001C0880FCA95EAF70E9479
:10195000D514CF910C941315EBE5EC0FE33040F464
:10196000F0E0ED57FE4F808190E0CF910C943F0B5B
:10197000C85AC73158F4EC2FF0E0EE0FFF1FEB5AB6
:10198000FE4F80819181CF910C94550BCF9108959A
:10199000882349F1682F8CEF860F813A38F48091C3
:1019A0000601909107010E9465160CC080E2860F27
:1019B000883050F4677081E001C0880F6A95EAF7BB
:1019C0000E94DB140C9413158BE5860F833020F4F2
:1019D00080E090E00C943F0B685A673120F480E07F
:1019E00090E00C94550B08951F93CF93DF93182F1D
:1019F000EB010E947A0C209741F08FE99FE001975C
:101A0000F1F700C000002197F6CF812FDF91CF9131
:101A10001F910C94C80C893319F060E070E002C08B
:101A200060E570E00C94F40C882321F00E94D5143A
:101A30000C9413150895882321F00E94DB140C9454
:101A400013150895CF92DF92EF92FF920F931F9399
:101A5000CF93DF937C01D62FC72FFC011281058124
:101A600002950F700E94CB14882399F0112389F0FE
:101A70008C2F807F803421F080E28D0F883048F0F9
:101A800082E00E945D150E94CB1491E0D82ED926E9
:101A900001C0D12CCC2EC2948FE0C8228C2D90E0B6
:101AA0008C30910508F0ABC1FC01EA5AFF4F0C9451
:101AB000C71F8C2F807FCF70882311F0C295C07F05
:101AC000112399F0CC2309F486C180E28D0F883070
:101AD00010F0D11104C08C2F0E94D51403C08C2F9C
:101AE0000E94E5140E94131576C18D2F0E94C80C28
:101AF000CC2309F484C180E28D0F883010F0D1111D
:101B000004C08C2F0E94DB1403C08C2F0E94EB14A6
:101B10000E94131574C18C2F807FCF70803211F01A
:101B2000C295C07FDD2319F0D130C9F022C0112346
:101B300071F0002341F0013031F40E94F8148C2B35
:101B40000E9400155CC10E94F8148C2B1DC000235C
:101B500019F0013009F453C10E94091525C0112361
:101B600021F0063008F04BC10EC0053008F047C127
:101B70001BC0112361F0002331F0F701858180FF44
:101B80002AC18F7085838C2F0E94140D38C10023C9
:101B900059F0D93309F030C1FFEF07EE13E0F150EF
:101BA00000401040E1F726C18C2F0E941B0D27C179
:101BB0008C2F86958695837019F0813061F01FC156
:101BC000112321F08D2F9C2F937002C080E090E0B4
:101BD0000E943F0B1CC1112321F08D2F9C2F93706D
:101BE00002C080E090E00E94550B11C18C2F8370E1
:101BF00009F047C0111107C12D2F22952695277096
:101C0000220F220F6D2F6F70862F90E0A0E0B0E0C2
:101C1000022E04C0880F991FAA1FBB1F0A94D2F777
:101C2000D4FF10C04FE050E060E070E004C0440F0B
:101C3000551F661F771F2A95D2F7409550956095DE
:101C4000709503C040E050E0BA01C695C695C370D8
:101C50008A019B01082B192B2A2B3B2BC901B801A8
:101C6000C23049F058F4C13019F00E941613CBC0AD
:101C70000E940413C8C00E942813C5C00E9402130A
:101C8000C2C0112319F08C2F817001C08695882362
:101C900009F4B9C02D2F229526952770220F220F07
:101CA0006D2F6F70862F90E0A0E0B0E0022E04C090
:101CB000880F991FAA1FBB1F0A94D2F7D4FF10C028
:101CC0004FE050E060E070E004C0440F551F661F15
:101CD000771F2A95D2F7409550956095709503C06F
:101CE00040E050E0BA01C695C695C3708A019B01D9
:101CF000082B192B2A2B3B2BC901B801C23049F004
:101D000058F4C13019F00E94DB137DC00E94C91342
:101D10007AC00E94ED1377C00E943C1374C0CF704C
:101D2000112339F08C2F0E9462138D2F0E94140D05
:101D30006AC08D2F0E941B0D8C2F0E94831363C0DD
:101D4000D23F01F128F4D03F41F0D13FA1F03FC094
:101D5000D33FF9F0D43F39F13AC0112341F00530B7
:101D600008F04DC08C2F8F710E94A81348C0063018
:101D700008F045C0F7CF112339F08C2F8F710E94E6
:101D800062133DC01123C9F38C2F8F710E948313FE
:101D900036C0112329F08C2F8F710E944D132FC054
:101DA0000E9448132CC0112349F0CF718C2F0E9440
:101DB000621363E08C2F0E94481521C081E00E94CD
:101DC0005D150230E0F082E00E945D1518C011231D
:101DD00031F0002391F28D2F0E947A0C10C0002365
:101DE00099F2D93349F41FEF27EE33E01150204028
:101DF0003040E1F700C000008D2F0E94C80C88EF32
:101E00008C0D843020F40E94DF0A0E94C005DD2082
:101E1000C9F00E94C71480FD15C0F70112820E940C
:101E2000C1140E946213C7010E94430F0E94C11493
:101E3000DF91CF911F910F91FF90EF90DF90CF90A6
:101E40000C948313DF91CF911F910F91FF90EF902E
:101E5000DF90CF9008950F931F93CF93DF93EC0102
:101E6000688179818A810E949E148C010E94FF13EF
:101E70000E94F012B801CE010E94220DDF91CF9195
:101E80001F910F910895CF93DF93EC019881898181
:101E90002B813C81232B31F08F3F31F481E09F3F38
:101EA00019F403C081E001C080E080FD19C0CE01BB
:101EB0000E944F0581110CC00E94CB14882381F031
:101EC0008A81882369F082E0DF91CF910C945D15BF
:101ED000CE010E942B0FCE01DF91CF910C942A05E9
:101EE000DF91CF91089580E090E00E943F0B80E069
:101EF00090E00E94550B0E94F2140E94F5140C947D
:101F0000131580910601909107010E9467160C94A9
:101F1000730F0E94E2140C94810FE92FE295EF7089
:101F20004E2F50E0FA013297EE30F105B0F4EE5941
:101F3000FF4F0C94C71F803F91F018F4883E68F45F
:101F40000EC0843F51F40BC0883E48F0813F29F415
:101F500006C093FB882780F9089580E0089581E00A
:101F600008950E9493140E948D0F0895CF93DF93DC
:101F700000D000D01F92CDB7DEB70F900F900F901A
:101F80000F900F90DF91CF910895CF93DF9300D002
:101F900000D000D0CDB7DEB726960FB6F894DEBFDE
:101FA0000FBECDBFDF91CF9108951F93CF93DF93E5
:101FB000C091BE0116E08091BF01C81799F0D0E032
:101FC0001C9FF0011D9FF00D1124E054FE4F408135
:101FD000518162817381848195810E94C50F219610
:101FE000C770E9CFDF91CF911F9108954091F00123
:101FF0005091F1016091F2017091F3018091F4012F
:102000009091F5010C94C50F0F931F93CF93DF931D
:102010008091F50182958F7009F05DC08091F20189
:10202000882309F458C08091BE011091BF016091CE
:10203000F0017091F101C091F301D091F40191E0B0
:102040006F3F09F090E0292F06E0811709F443C0A3
:10205000209721F07F3F21F030E003C031E001C044
:10206000322F90E030FD34C0089FF001099FF00D41
:102070001124DF01A054BE4F11963C9111973713E4
:1020800027C03C91361324C012963C91129731110F
:102090001FC013964D915C9114974C1B5D0B483CEF
:1020A0005105B0F48091F5018F7080618093F50146
:1020B000EB53FE4F80818F708061808380EF91E0D1
:1020C0000E94430FDF91CF911F910F910C94D50F78
:1020D00001968770BACFDF91CF911F910F9108952C
:1020E0009F92AF92BF92CF92DF92EF92FF920F93A7
:1020F0001F93CF93DF93CDB7DEB761970FB6F894F8
:10210000DEBF0FBECDBF8C0185E0F801DE011D965C
:1021100001900D928A95E1F7F80140815181E280AA
:102120009091F0016091F1012091F3013091F4015F
:102130002115310531F06F3F31F481E09F3F19F4F3
:1021400003C081E001C080E0F82FF1709F2E80FD78
:1021500046C1F801A380B48080EFC82E81E0D82E5C
:10216000F090F201F501E21BF30BFF2009F4DFC050
:102170008091F501E83CF10508F09BC0282F207FF5
:1021800009F052C0561313C0491311C0FE2CE110C0
:102190000EC08F7080618093F5010E94F60FC6011A
:1021A0000E94430F8091F501F801858358C1AB2847
:1021B00031F05F3F31F481E04F3F19F403C081E01B
:1021C00001C080E080FD03C081E08E2502C080E078
:1021D00090E0F82FF170FF2E80FF1CC08091BE01AF
:1021E0002091BF0136E0821709F417C190E0389FB3
:1021F000F001399FF00D1124E054FE4F6181561318
:1022000006C06081461303C06281E61203C00196D6
:102210008770E9CFFE2CEE2009F421C18091F501F1
:1022200081608093F5015AC0561306C0491304C05B
:10223000E11002C0F8019FC04D875E878D859E85A5
:102240000E94B10F882379F1EE2069F12091F50108
:10225000822F82958F7090E0029774F08091F00148
:102260009091F10198878F831986BB86AA862C8767
:10227000CE0107960E94430F86E0F801A0EFB1E07F
:1022800001900D928A95E1F70E9404100E94F60FCA
:102290000DC0561729F14D875E878D859E850E945A
:1022A000B10F81112CC0C8010E94430FFF24F39489
:1022B000D6C0282F207F69F77A2DB98AA88A6E2D7B
:1022C00089890E94B60F80EF91E00E94430F86E05B
:1022D000F60111928A95E9F70E94F60FF12CBFC022
:1022E0004913D9CFE110D7CFF8018583C8010E94E7
:1022F000430F86E0F60111928A95E9F7B0C0EE200F
:1023000091F22091F501822F82958F7090E00297D3
:102310000CF4B2CF8091F0019091F1019A838983FE
:102320001B82BD82AC822E83CE010196A3CFE83CF6
:10233000F10508F047C0FE2CEE2009F4B4CF561387
:1023400030C049132EC02091F50120FD21C0822FFD
:1023500082958F70482F50E041155105C9F0F80162
:1023600025834F30510541F08F5F982F9295907FD4
:10237000822F8F70892B8583C8010E94430F86E0CE
:10238000F801A0EFB1E001900D928A95E1F742C00B
:1023900086E0F801A0EFB1E001900D928A95E1F797
:1023A0005EC04D875E878D859E850E94B10F81112D
:1023B00063CF8091F50181608093F501C8010E948F
:1023C000430F4DC07A2DB98AA88A6E2D89890E9443
:1023D000B60F86E0F60111928A95E9F71BC0EE2050
:1023E00009F461CF4D875E878D859E850E94B10F70
:1023F000F82E882309F457CF86E0F801A0EFB1E06A
:1024000001900D928A95E1F780EF91E00E94740CA3
:102410000E9404100E94F60F22C04D875E878D85B2
:102420009E850E949314292F22952F70223028F424
:102430009F7039F0811105C00BC0243028F49F70C3
:1024400049F4805E883020F0C8010E94430F9F2C21
:10245000F92C05C0F8019581907F99F7F9CF8F2D60
:1024600061960FB6F894DEBF0FBECDBFDF91CF915E
:102470001F910F91FF90EF90DF90CF90BF90AF90A2
:102480009F9008951F93CF93DF93CDB7DEB72C971E
:102490000FB6F894DEBF0FBECDBF4F835887698754
:1024A0007A878B879C87CE0107960E9470108823BD
:1024B000D1F09F8188852A853B85232B31F08F3F82
:1024C00031F481E09F3F19F403C081E001C080E056
:1024D00080FD47C04F81588569857A858B859C85AD
:1024E0000E94C50F3EC086E0FE013796DE011196C0
:1024F00001900D928A95E1F7FF81E8856A857B85D9
:102500006115710531F0EF3F31F481E0FF3F19F4BF
:1025100003C081E001C080E080FD23C02091BF01A5
:1025200030E0C9010196877099274091BE0150E0C3
:1025300084179507F1F1F983EA837D836C8396E034
:10254000929FD001939FB00D1124A054BE4FFE0165
:10255000319601900D929A95E1F78093BF010E9408
:10256000D50F16E08091BE019091BF01891771F1DE
:10257000189FC001112480549E4F0E947010882320
:1025800029F1E091BE011E9FF0011124E054FE4F9D
:102590004081518162817381848195810E94C50F40
:1025A0008091BE0190E00196877099278093BE01CB
:1025B000D9CF0E94890F1092BF011092BE01E0EFA7
:1025C000F1E086E0DF011D928A95E9F72C960FB6BF
:1025D000F894DEBF0FBECDBFDF91CF911F9108955C
:1025E000089508950C94F1120C94F2120E94F412C2
:1025F0006093FF01709300028093010290930202A6
:102600000C94730F0C94F6120F931F930091FF011B
:10261000109100022091010230910202602B712B77
:10262000822B932B1F910F910C94F6120F931F93F3
:102630000091FF01109100022091010230910202ED
:1026400060237123822393231F910F910C94F61220
:102650000F931F930091FF0110910002209101023E
:102660003091020260277127822793271F910F91D3
:102670000C94F6120C94F1120E943A136093FB0131
:102680007093FC018093FD019093FE010C94730FF5
:1026900060E070E0CB010C943C130F931F9341E07A
:1026A00050E060E070E08A019B0104C0000F111F40
:1026B000221F331F8A95D2F7C901B8011F910F91CC
:1026C0000C943C130F931F9341E050E060E070E0E6
:1026D00004C0440F551F661F771F8A95D2F780915B
:1026E000FB019091FC01A091FD01B091FE018A01D6
:1026F0009B01082B192B2A2B3B2BC901B8011F91D9
:102700000F910C943C130F931F9341E050E060E055
:1027100070E004C0440F551F661F771F8A95D2F7DB
:1027200040955095609570958091FB019091FC01CA
:10273000A091FD01B091FE018A019B01082319239C
:102740002A233B23C901B8011F910F910C943C131C
:102750000F931F9341E050E060E070E004C0440F2D
:10276000551F661F771F8A95D2F78091FB019091C4
:10277000FC01A091FD01B091FE018A019B01082797
:1027800019272A273B27C901B8011F910F910C94E3
:102790003C130F931F930091FB011091FC012091BA
:1027A000FD013091FE01602B712B822B932B1F9129
:1027B0000F910C943C130F931F930091FB01109108
:1027C000FC012091FD013091FE01602371238223E1
:1027D00093231F910F910C943C130F931F9300911F
:1027E000FB011091FC012091FD013091FE01602759
:1027F0007127822793271F910F910C943C13089502
:10280000890FE82FE695E695E695877051E001C0BF
:10281000550F8A95EAF785E0E89FF0011124EA5008
:10282000FE4F20E030E070E04081CB01022E02C07C
:10283000969587950A94E2F7817081958427852380
:10284000842781932F5F3F4F2530310569F7089525
:10285000890F682F669566956695982F977085E025
:10286000689FB001112440E050E080E0FB01E40FDC
:10287000F51FEA50FE4F208130E0092E02C0369548
:1028800027950A94E2F721703327042E01C0220F06
:102890000A94EAF7822B4F5F5F4F4530510531F7BD
:1028A0000895BF92CF92DF92EF92FF920F931F9302
:1028B000CF93DF938C01C090FB01D090FC01E0909E
:1028C000FD01F090FE018091FF0190910002A09126
:1028D0000102B0910202C82AD92AEA2AFB2ACFE1D2
:1028E000D0E0D701C6010C2E04C0B695A7959795E8
:1028F00087950A94D2F780FD04C0219790F7B12CF8
:1029000007C0BC2EB8018C2F0E94D7050197A9F3F0
:102910008B2DDF91CF911F910F91FF90EF90DF9062
:10292000CF90BF900895CF93DF93EC010E94511494
:10293000BE010E94D705DF91CF9108951F93CF93D9
:10294000DF93EB019091BD01992321F0CB010E940F
:10295000931413C0882349F0CB010E945114182FFF
:10296000682FCE010E94001404C0CB010E942814DD
:10297000182FBE01812F0E94D705DF91CF911F91A3
:102980000895809103028595859585950895809198
:1029900003028770089590910302977081E009F413
:1029A00080E0089580910F02089590910F02892B85
:1029B00080930F020895809590910F028923809350
:1029C0000F02089510920F02089590910E02892B24
:1029D00080930E020895809590910E028923809332
:1029E0000E02089510920E02089510920D0208959D
:1029F00080910402089508950C94FB140C94FC1427
:102A000090910402981721F0809304020C94FE1414
:102A1000089580910402882329F01092040280E036
:102A20000C94FE140895E0910601F0910701809145
:102A30000F028083E0910601F0910701908180915F
:102A40000E02892B8083E0910601F09107019081AD
:102A500080910D02892B808380910402882381F06C
:102A6000E0910601F09107019081892B808380918C
:102A70000601909107010E94211681110E940915FB
:102A800080910601909107010C94EB0A0C94FB14C1
:102A900098E0899F90011124262B209303020E9425
:102AA0006213809103028595859585950C94461552
:102AB0001092030280E00C94461520910302809549
:102AC000822380930302982F977079F430E0482F87
:102AD000082E000C550B2417350739F08595859580
:102AE00085950E9483130C945815089580E090E01A
:102AF0000E94DB1F21E08B3E9E4F09F020E0822FD9
:102B0000089582E090E00C94CD1F83E090E00C9457
:102B1000CD1FCF9384E090E00E94CD1FC82F81E2AB
:102B200090E00E94CD1F2C2F30E0A901582BCA0144
:102B3000CF910895CF93C92F682F84E090E00E9431
:102B4000E11F6C2F81E290E0CF910C94E11F8FE0A8
:102B500090E00C94D51FAB01BC018FE090E00C9489
:102B6000F31FAB01BC0183E190E00C94F31F60E024
:102B700070E0CB010C94B1156BEE7EEF80E090E03D
:102B80000E94FF1F60E082E090E00E94E11F60E091
:102B900083E090E00E94E11F1092FF01109200027A
:102BA000109201021092020260E084E090E00E9424
:102BB000E11F60E081E290E00E94E11F60E085E0BB
:102BC00090E00E94E11F60E086E090E00E94E11F3B
:102BD0006FEF87E090E00E94E11F40E050E0BA0113
:102BE00088E090E00E94F31F60E08DE090E00E949A
:102BF000E11F40E050E0BA0188E190E00E94F31F3D
:102C000060E087E190E00E94E11F40E050E0BA01FF
:102C10008CE190E00E94F31F60E080E290E00E946F
:102C2000E11F40E050E0BA0188E190E00E94F31F0C
:102C30000C94BC040C94BC15682F8EE090E00C94AE
:102C4000E11FFC01329697E080E0915029F021913C
:102C50002223D9F38F5FF9CF0895662349F0FC0151
:102C6000329608962191621729F0E817F907D1F7F3
:102C700080E0089581E008959C01FC0132969FEF69
:102C800080E04191461789F09F3F19F4411101C03E
:102C9000982F8F5F8630A9F79F3F39F0F901E90F30
:102CA000F11D97FDFA956283089508959C012A5FAE
:102CB0003F4FFC014281461301C0128201968217E8
:102CC0009307B9F708950C943C160C945616029687
:102CD00026E0FC0111922A95E9F7089508950C94D5
:102CE0006E160C946E160E9471160E94DF070E94E9
:102CF0006F1680E00E949F0791E0811101C090E073
:102D0000892F08950C946E160C94821680914603B8
:102D1000843049F10E94841680E00E94C005109220
:102D2000110220E488E190E00FB6F894A895809312
:102D300060000FBE2093600083B7817F846083BFF3
:102D400083B7816083BF7894889583B78E7F83BF74
:102D50000FB6F894A8958091600088618093600018
:102D6000109260000FBE08950C946E160E94890F99
:102D70000E94DF0A0E94C0050C94B4161F920F92A5
:102D80000FB60F9211248F939F93AF93BF938091AF
:102D90001102811113C080913C0390913D03A091D9
:102DA0003E03B0913F034196A11DB11D80933C03AA
:102DB00090933D03A0933E03B0933F03BF91AF9127
:102DC0009F918F910F900FBE0F901F90189582E0EA
:102DD00084BD93E095BD9AEF97BD80936E000895F2
:102DE0002FB7F89480913C0390913D03A0913E034E
:102DF000B0913F032FBF08952FB7F89460913C0323
:102E000070913D0380913E0390913F032FBF089541
:102E10009C014FB7F89480913C0390913D03A091A1
:102E20003E03B0913F034FBF821B930B08957894EC
:102E30001F920F920FB60F9211248F939F93AF930F
:102E4000BF9380913C0390913D03A0913E03B091CC
:102E50003F030196A11DB11D80933C0390933D0358
:102E6000A0933E03B0933F03BF91AF919F918F9189
:102E70000F900FBE0F901F90189581E08093E00097
:102E800080E28093D8001092C9008FE19EE4019700
:102E9000F1F700C0000087E090EBDC0180934F0366
:102EA00090935003A0935103B09352039CE088E1A8
:102EB0000FB6F894A895809360000FBE90936000C1
:102EC000FFCF90939B0180939A0108950E947615FD
:102ED000811102C00E941A160E948115809310026F
:102EE0000E94891590934103809340030E948515A9
:102EF000682F70E080E090E00E9402136091FB0177
:102F00007091FC018091FD019091FE010C943A13A7
:102F100080911D020895CF93DF9300D01F92CDB70B
:102F2000DEB790914603943019F589837B836A83D9
:102F300083E08093E9008FEF9091E800815095FD48
:102F400006C095ED9A95F1F700008111F5CF8091BB
:102F5000E80085FF0DC040E050E063E070E0CE0186
:102F600001960E946E1A8091E8008E778093E800A7
:102F70000F900F900F90DF91CF910895BC0184E0E6
:102F80000C948B17BC0183E00C948B1722E02093E8
:102F9000E9002FEF3091E800215035FD06C035EDF6
:102FA0003A95F1F700002111F5CF2091E80025FFB7
:102FB0000BC040E050E065E070E00E946E1A809126
:102FC000E8008E778093E8000895CF93DF9321E0A7
:102FD0002093E9002FEF3091E800215035FD06C025
:102FE00035ED3A95F1F700002111F5CF2091E80079
:102FF00025FF14C0EC0140E050E068E070E00E9462
:103000006E1A8091E8008E778093E80088E0FE01D8
:10301000A5E1B2E001900D928A95E1F7DF91CF91A1
:1030200008958DEC91E00E940A0280914503811180
:1030300009C00E94FF1B0E945C1C8091E20084601A
:103040008093E200089589EC91E00E940A021092B8
:103050004503089585EC91E00C940A0281EC91E01F
:103060000C940A028DEB91E00C940A022091130259
:103070002F5F822F62E30E94A71F992319F02093EC
:10308000130208951092130280911402882371F1A3
:1030900080914603843041F58091E9008F70209142
:1030A000EC00922F917020FD90E8892B94E0909392
:1030B000E9009091EB0090FF14C09091EE0097FF13
:1030C00010C09091E80095FF03C01092F100F9CF75
:1030D0009091E80090FF05C09091E8009E77909352
:1030E000E8008F708093E90010921402089542E086
:1030F00061EC81E00E94781B42E061EC82E00E947A
:10310000781B42E261EC83E00E94781B42E261ECB2
:1031100084E00C94781B80914803833009F462C0EA
:1031200030F4813071F0823009F49BC008958A3008
:1031300009F487C08B3009F46DC0893009F0A9C04B
:1031400020C080914703813A09F0A3C08091E80034
:10315000877F8093E80080914B0390914C03892BEB
:1031600021F468E085E192E003C060E080E090E057
:1031700070E00E94B91A8091E8008B778093E80094
:10318000089580914703813209F083C080914B03F9
:1031900090914C03009719F0029709F07AC0809142
:1031A000E800877F8093E8008091E80082FD05C0F9
:1031B000809146038111F8CF6CC02091F30080917B
:1031C000F20090E0922B029729F48091F1008B7F1E
:1031D000813021F48091F10080931D028091E800FC
:1031E0008B7753C080914703813A09F052C0809198
:1031F0004B0390914C03892B09F04BC08091E80060
:10320000877F8093E8008091E80080FFFCCF809169
:10321000120136C0809147038132D9F580914B036A
:1032200090914C03892BA9F58091E800877F8093CA
:10323000E8000E94AD1B80914903809312010C9419
:10324000890F80914703813221F58091E800877FC3
:103250008093E8000E94AD1B80914A0380931E0278
:10326000089580914703813AA1F48091E800877F17
:103270008093E8008091E80080FFFCCF80911E02DF
:103280008093F1008091E8008E778093E8000C94A1
:10329000AD1B08959FB7F894109214029FBF9091B0
:1032A0004603943009F057C09091E9009F70309127
:1032B000EC00232F217030FD20E8922B24E0209396
:1032C000E9002091EB0020FF43C02091EE0027FF92
:1032D0003FC020911202222321F02091E80025FF17
:1032E00037C01092120226E03091E80035FD15C07B
:1032F00030914603343061F53091EB0035FD28C044
:10330000215021F481E08093120222C0EFE9FFE016
:103310003197F1F700C00000E7CF8093F100809172
:10332000E80085FD0AC08091E80080FFFCCF809115
:10333000E8008E778093E80006C08FB7F89421E00C
:10334000209314028FBF9F709093E90080E008954E
:103350009F709093E9008FEF089584B7877F84BFB3
:103360000FB6F894A8958091600088618093600002
:10337000109260000FBE90E080E80FB6F894809342
:103380006100909361000FBE0E94920B0E94FF1B90
:103390000E945C1C8091E20084608093E20078943B
:1033A0000E94F01E0E949C0B88E091E00E94DA0AC5
:1033B0008CEA91E00E940A02809146038530C9F4AC
:1033C00088EA91E00E940A0280914603853079F4F0
:1033D0000E948616809144038823B1F30E947316DD
:1033E000882391F30E94581A0E94890FEDCF0E9402
:1033F000B6160E94CE0B0E948A0B0E94890BDCCF6E
:103400000C94021A292F332723303105C9F060F4B8
:103410002130310581F02230310509F041C084E7C7
:1034200090E029E032E040C021323105E1F0223263
:10343000310531F135C082E190E02DE732E034C052
:1034400099278130910549F028F0029749F5E1ED7F
:10345000F1E005C0E5E0F2E002C0E1EFF1E08491C7
:1034600090E09F0121C064307105D0F4660F771F92
:10347000FB01EE56FE4F2081318189E090E014C0BF
:103480006430710568F4FB01EE0FFF1FE657FE4F35
:1034900020813181FB01EA57FE4F808190E004C01A
:1034A00080E090E020E030E0FA013183208308954D
:1034B00080E189BD82E189BD09B400FEFDCF809124
:1034C000D8008F7D8093D8008091E0008260809347
:1034D000E0008091E00081FDFCCF0895CF92DF9263
:1034E000EF92FF920F931F93CF93DF93EC018B0129
:1034F0007A010E94CC1B811133C0E114F10439F030
:10350000F70180819181081B190BC80FD91FC12CAD
:10351000D12C0115110519F18091E80085FD16C027
:103520008091E8008E778093E800E114F10449F07F
:10353000F70180819181C80ED91ED182C08285E0B9
:103540000FC00E94CC1B882321F30AC0899180936D
:10355000F10001501109FFEFCF1ADF0ADACF80E046
:10356000DF91CF911F910F91FF90EF90DF90CF905F
:10357000089520914D0330914E032617370748F0E8
:103580006115710539F42091E8002E772093E80049
:1035900001C0B901FC0120E06115710579F180914C
:1035A00046038823F1F18530F1F18091E80083FD35
:1035B0003CC08091E80082FD2EC08091E80080FF31
:1035C000EBCF2091F3008091F20090E0922B6115F7
:1035D000710551F08830910538F421912093F10064
:1035E000615071090196F3CF21E0089709F020E0BE
:1035F0008091E8008E778093E800CECF2111CFCF65
:103600000AC080914603882361F0853061F0809183
:10361000E80083FD0AC08091E80082FFF2CF80E0DD
:10362000089582E0089583E0089581E0089520914F
:103630004D0330914E032617370748F06115710589
:1036400039F42091E8002E772093E80001C0B901F9
:10365000FC0120E06115710591F1809146038823FA
:1036600009F440C0853009F43FC08091E80083FD33
:103670003DC08091E80082FD2FC08091E80080FF6E
:10368000E9CF2091F3008091F20090E0922B611538
:10369000710559F08830910540F424912093F10090
:1036A0003196615071090196F2CF21E0089709F037
:1036B00020E08091E8008E778093E800CBCF211145
:1036C000CCCF0AC080914603882361F0853061F039
:1036D0008091E80083FD0AC08091E80082FFF2CF6C
:1036E00080E0089582E0089583E0089581E00895E0
:1036F000982F973068F59093E900981739F07091FA
:10370000EC002091ED005091F00003C0242F762FA3
:1037100050E021FD02C09F5FECCF3091EB003E7F77
:103720003093EB003091ED003D7F3093ED00309110
:10373000EB0031603093EB007093EC002093ED00D0
:103740005093F0002091EE0027FDE5CF80E0089532
:103750008F708093E90081E008958091470387FF8F
:1037600011C08091E80082FD05C08091460381115F
:10377000F8CF11C08091E8008B770BC08091460391
:10378000882349F08091E80080FFF8CF8091E8001D
:103790008E778093E80008952091E4003091E50051
:1037A00095E64091EC00842F817040FF23C080910A
:1037B000E80080FD1DC080914603882399F0853084
:1037C00099F08091EB0085FD11C04091E40050918B
:1037D000E5002417350729F3915011F09A01E1CF44
:1037E00084E0089582E0089583E0089581E00895DB
:1037F00080E008954091E80042FFDDCF08950E94E7
:103800006D1C0E94751CE0EEF0E080818160808379
:10381000E8EDF0E080818F77808319BCA7EDB0E000
:103820008C918E7F8C9380818F7E80831092450354
:1038300008950F931F93CF93DF930E946D1C0E94F6
:10384000751CC8EDD0E088818F7788838881806877
:10385000888388818F7D888319BC109246031092DB
:103860004203109244031092430300EE10E0F8016B
:1038700080818B7F808388818160888342E060E0E3
:1038800080E00E94781BE1EEF0E080818E7F8083F3
:10389000E2EEF0E0808181608083808188608083B7
:1038A000F80180818E7F8083888180618883DF91A9
:1038B000CF911F910F910895E8EDF0E080818F7E08
:1038C0008083E7EDF0E080818160808384E082BFC7
:1038D00081E0809345030C94191CE8EDF0E08081B1
:1038E0008E7F80831092E20008951092DA00109289
:1038F000E10008951F920F920FB60F9211242F939B
:103900003F934F935F936F937F938F939F93AF9367
:10391000BF93EF93FF938091E10082FF0BC08091F2
:10392000E20082FF07C08091E1008B7F8093E1007D
:103930000E9436188091DA0080FF1FC08091D80065
:1039400080FF1BC08091DA008E7F8093DA00809127
:10395000D90080FF0DC080E189BD82E189BD09B435
:1039600000FEFDCF81E0809346030E94111805C040
:1039700019BC109246030E9423188091E10080FF39
:1039800019C08091E20080FF15C08091E2008E7F17
:103990008093E2008091E20080618093E200809158
:1039A000D80080628093D80019BC85E080934603DC
:1039B0000E942E188091E10084FF30C08091E200C7
:1039C00084FF2CC080E189BD82E189BD09B400FE7D
:1039D000FDCF8091D8008F7D8093D8008091E10049
:1039E0008F7E8093E1008091E2008F7E8093E200E1
:1039F0008091E20081608093E200809142038823FD
:103A000011F084E007C08091E30087FD02C081E0EF
:103A100001C083E0809346030E9432188091E10048
:103A200083FF29C08091E20083FF25C08091E100DF
:103A3000877F8093E10082E08093460310924203E7
:103A40008091E1008E7F8093E1008091E2008E7F83
:103A50008093E2008091E20080618093E20042E086
:103A600060E080E00E94781B8091F0008860809385
:103A7000F0000E942A18FF91EF91BF91AF919F91A2
:103A80008F917F916F915F914F913F912F910F9007
:103A90000FBE0F901F9018951F920F920FB60F92A6
:103AA00011242F933F934F935F936F937F938F9343
:103AB0009F93AF93BF93CF93DF93EF93FF93C09107
:103AC000E900CF708091EC00D82FD17080FDD0E854
:103AD0001092E9008091F000877F8093F000789445
:103AE0000E94901D1092E9008091F0008860809300
:103AF000F000CD2BCF70C093E900FF91EF91DF91E3
:103B0000CF91BF91AF919F918F917F916F915F9175
:103B10004F913F912F910F900FBE0F901F901895CE
:103B20001F93CF93DF93CDB7DEB7AA970FB6F89464
:103B3000DEBF0FBECDBFE7E4F3E08091F1008193DB
:103B400023E0EF34F207C9F70E948B188091E80058
:103B500083FF2EC18091470390914803492F50E085
:103B60004A30510508F024C1FA01E059FF4F0C9486
:103B7000C71F803821F0823809F01AC108C080912F
:103B8000430390914403992389F082600FC0809190
:103B90004B038F70873008F00BC18093E900809150
:103BA000EB0085FB882780F91092E9009091E800EE
:103BB000977F9093E8008093F1001092F100D1C0BC
:103BC000282F2D7F09F0F4C0882319F0823061F08E
:103BD000EFC080914903813009F0EAC0933009F0C9
:103BE00080E0809344032EC08091490381112AC054
:103BF00080914B038F702FEF280F263008F0D8C02C
:103C00008093E9002091EB0020FF1CC0933021F449
:103C10008091EB00806214C09091EB0090619093D2
:103C2000EB0021E030E0A90102C0440F551F8A9546
:103C3000E2F74093EA001092EA008091EB0088607E
:103C40008093EB001092E9008091E800877F8093D9
:103C5000E8000E94AD1BACC08111AAC010914903BD
:103C60001F778091E3008078812B8093E30080911F
:103C7000E800877F8093E8000E94AD1B8091E800F8
:103C800080FFFCCF8091E30080688093E3001111F6
:103C900002C082E001C083E08093460389C080585F
:103CA000823008F085C08091490390914A038C3D91
:103CB00053E0950779F583E08A838AE289834FB7D9
:103CC000F894DE01139620E03EE051E2E32FF0E0AD
:103CD00050935700E49120FF03C0E295EF703F5FDF
:103CE000EF708E2F90E0EA3010F0C79601C0C096BA
:103CF0008D939D932F5F243149F74FBF8091E8004A
:103D0000877F8093E8006AE270E0CE0101960E940E
:103D1000B91A16C060914B0370914C03AE014F5F0E
:103D20005F4F0E94001ABC01892B09F441C0909199
:103D3000E800977F9093E80089819A810E94171B81
:103D40008091E8008B778093E80032C0803881F55D
:103D50008091E800877F8093E80080914203809300
:103D6000F1008091E8008E7772CF811121C080919F
:103D7000490390914A0399270297D4F48091E8006F
:103D8000877F8093E80080914903809342030E94DB
:103D9000AD1B80914203811106C08091E30087FD35
:103DA00002C081E001C084E0809346030E9477183E
:103DB0008091E80083FF0AC08091E800877F8093AC
:103DC000E8008091EB0080628093EB00AA960FB62A
:103DD000F894DEBF0FBECDBFDF91CF911F91089544
:103DE000CF93809146038823A1F0C091E900CF7062
:103DF0009091EC00892F817090FD80E8C82B109283
:103E0000E9008091E80083FD0E94901DCF70C0936F
:103E1000E900CF9108950E94121F6894B1110C948B
:103E2000A11F08950E94861F88F09F5798F0B92F10
:103E30009927B751B0F0E1F0660F771F881F991FDF
:103E40001AF0BA95C9F714C0B13091F00E94A01FC2
:103E5000B1E008950C94A01F672F782F8827B85FD2
:103E600039F0B93FCCF3869577956795B395D9F737
:103E70003EF490958095709561957F4F8F4F9F4F41
:103E80000895E89409C097FB3EF49095809570954D
:103E900061957F4F8F4F9F4F9923A9F0F92F96E996
:103EA000BB279395F695879577956795B795F1110B
:103EB000F8CFFAF4BB0F11F460FF1BC06F5F7F4FA8
:103EC0008F4F9F4F16C0882311F096E911C07723BA
:103ED00021F09EE8872F762F05C0662371F096E8C3
:103EE000862F70E060E02AF09A95660F771F881F92
:103EF000DAF7880F9695879597F9089557FD9058AA
:103F0000440F551F59F05F3F71F04795880F97FB9D
:103F1000991F61F09F3F79F0879508951216130657
:103F20001406551FF2CF4695F1DF08C01616170686
:103F30001806991FF1CF86957105610508940895BB
:103F4000E894BB2766277727CB0197F90895991B3B
:103F500079E004C0991F961708F0961B881F7A9580
:103F6000C9F780950895AA1BBB1B51E107C0AA1F82
:103F7000BB1FA617B70710F0A61BB70B881F991F0A
:103F80005A95A9F780959095BC01CD010895EE0F43
:103F9000FF1F0590F491E02D0994F999FECF92BD91
:103FA00081BDF89A992780B50895A6E1B0E044E074
:103FB00050E00C940720A8E1B0E042E050E00C94FF
:103FC0000720262FF999FECF92BD81BDF89A01975F
:103FD00000B4021639F01FBA20BD0FB6F894FA9A51
:103FE000F99A0FBE08950396272F0E94E21F0E94A0
:103FF000E11F252F0E94E21F242F0C94E21F01963F
:10400000272F0E94E21F0C94E11FDC01CB01FC0171
:10401000F999FECF06C0F2BDE1BDF89A319600B421
:0E4020000D9241505040B8F70895F894FFCF2C
:10402E00130016001B0005028817E517C617C217E6
:10403E00BE17013536679091929394959697C6F177
:10404E00F3F5F6F7E200E900EA00B500B600B700B6
:10405E00CD008301CC008A0192019401210223023A
:10406E0024022502260227022A02B300B4006F00A2
:10407E007000818283E200E900EA00B500B600B765
:10408E0000CD008301CC008A01920194012102230C
:10409E000224022502260227022A02B300B4006F70
:1040AE00007000818283404732222A03E302B1026C
:0A40BE008F021B0234024D0266025D
:00000001FF
